{
  "contractName": "Lottery",
  "abi": [
    {
      "inputs": [],
      "stateMutability": "nonpayable",
      "type": "constructor"
    },
    {
      "anonymous": false,
      "inputs": [
        {
          "indexed": true,
          "internalType": "uint256",
          "name": "lotteryID",
          "type": "uint256"
        },
        {
          "indexed": false,
          "internalType": "uint256",
          "name": "_time",
          "type": "uint256"
        }
      ],
      "name": "Create",
      "type": "event"
    },
    {
      "anonymous": false,
      "inputs": [
        {
          "indexed": true,
          "internalType": "address",
          "name": "member",
          "type": "address"
        },
        {
          "indexed": true,
          "internalType": "uint256",
          "name": "amount",
          "type": "uint256"
        },
        {
          "indexed": false,
          "internalType": "uint256",
          "name": "_time",
          "type": "uint256"
        }
      ],
      "name": "Deposit",
      "type": "event"
    },
    {
      "anonymous": false,
      "inputs": [
        {
          "indexed": true,
          "internalType": "address",
          "name": "previousOwner",
          "type": "address"
        },
        {
          "indexed": true,
          "internalType": "address",
          "name": "newOwner",
          "type": "address"
        }
      ],
      "name": "OwnershipTransferred",
      "type": "event"
    },
    {
      "anonymous": false,
      "inputs": [
        {
          "indexed": true,
          "internalType": "address",
          "name": "member",
          "type": "address"
        },
        {
          "indexed": true,
          "internalType": "uint256",
          "name": "amount",
          "type": "uint256"
        },
        {
          "indexed": false,
          "internalType": "uint256",
          "name": "_time",
          "type": "uint256"
        }
      ],
      "name": "Redeem",
      "type": "event"
    },
    {
      "inputs": [
        {
          "internalType": "address",
          "name": "",
          "type": "address"
        }
      ],
      "name": "collateralList",
      "outputs": [
        {
          "internalType": "bool",
          "name": "",
          "type": "bool"
        }
      ],
      "stateMutability": "view",
      "type": "function"
    },
    {
      "inputs": [
        {
          "internalType": "uint256",
          "name": "",
          "type": "uint256"
        },
        {
          "internalType": "uint256",
          "name": "",
          "type": "uint256"
        }
      ],
      "name": "liquidityBalances",
      "outputs": [
        {
          "internalType": "uint256",
          "name": "",
          "type": "uint256"
        }
      ],
      "stateMutability": "view",
      "type": "function"
    },
    {
      "inputs": [
        {
          "internalType": "uint256",
          "name": "",
          "type": "uint256"
        }
      ],
      "name": "lottery",
      "outputs": [
        {
          "internalType": "bool",
          "name": "exist",
          "type": "bool"
        },
        {
          "internalType": "uint256",
          "name": "lotteryID",
          "type": "uint256"
        },
        {
          "internalType": "uint256",
          "name": "liquidity",
          "type": "uint256"
        },
        {
          "internalType": "int256",
          "name": "award",
          "type": "int256"
        },
        {
          "internalType": "address",
          "name": "collateral",
          "type": "address"
        },
        {
          "internalType": "uint256",
          "name": "created",
          "type": "uint256"
        },
        {
          "internalType": "uint256",
          "name": "duration",
          "type": "uint256"
        }
      ],
      "stateMutability": "view",
      "type": "function"
    },
    {
      "inputs": [
        {
          "internalType": "address",
          "name": "",
          "type": "address"
        }
      ],
      "name": "member",
      "outputs": [
        {
          "internalType": "uint256",
          "name": "",
          "type": "uint256"
        }
      ],
      "stateMutability": "view",
      "type": "function"
    },
    {
      "inputs": [],
      "name": "owner",
      "outputs": [
        {
          "internalType": "address",
          "name": "",
          "type": "address"
        }
      ],
      "stateMutability": "view",
      "type": "function"
    },
    {
      "inputs": [],
      "name": "renounceOwnership",
      "outputs": [],
      "stateMutability": "nonpayable",
      "type": "function"
    },
    {
      "inputs": [
        {
          "internalType": "address",
          "name": "newOwner",
          "type": "address"
        }
      ],
      "name": "transferOwnership",
      "outputs": [],
      "stateMutability": "nonpayable",
      "type": "function"
    },
    {
      "inputs": [
        {
          "internalType": "address",
          "name": "_collateral",
          "type": "address"
        },
        {
          "internalType": "uint256",
          "name": "_amount",
          "type": "uint256"
        },
        {
          "internalType": "uint256",
          "name": "_duration",
          "type": "uint256"
        }
      ],
      "name": "create",
      "outputs": [],
      "stateMutability": "nonpayable",
      "type": "function"
    },
    {
      "inputs": [
        {
          "internalType": "uint256",
          "name": "_lotteryID",
          "type": "uint256"
        },
        {
          "internalType": "uint256",
          "name": "_amount",
          "type": "uint256"
        }
      ],
      "name": "deposit",
      "outputs": [],
      "stateMutability": "nonpayable",
      "type": "function"
    },
    {
      "inputs": [
        {
          "internalType": "address",
          "name": "_collateral",
          "type": "address"
        },
        {
          "internalType": "bool",
          "name": "_value",
          "type": "bool"
        }
      ],
      "name": "setCollateral",
      "outputs": [],
      "stateMutability": "nonpayable",
      "type": "function"
    }
  ],
  "bytecode": "0x60806040526001600555600160065534801561001a57600080fd5b50600061002e64010000000061007d810204565b60008054600160a060020a031916600160a060020a0383169081178255604051929350917f8be0079c531659141344cd1fd0a4f28419497f9722a3daafe3b4186f6b6457e0908290a350610081565b3390565b610cd5806100906000396000f3fe608060405234801561001057600080fd5b50600436106100bb576000357c010000000000000000000000000000000000000000000000000000000090048063a57d156011610083578063a57d15601461012e578063b1c9e93814610154578063e2bbb15814610174578063e7d4539e14610187578063f2fde38b1461019a576100bb565b80635165da30146100c05780635eeb1a5c146100d5578063715018a6146100fe5780638da5cb5b1461010657806394d316401461011b575b600080fd5b6100d36100ce3660046109d2565b6101ad565b005b6100e86100e3366004610a38565b6104e0565b6040516100f59190610c45565b60405180910390f35b6100d36104fd565b61010e610596565b6040516100f59190610a59565b6100d361012936600461099c565b6105a5565b61014161013c366004610a20565b610612565b6040516100f59796959493929190610a9c565b61016761016236600461097b565b61065d565b6040516100f59190610a91565b6100d3610182366004610a38565b610672565b6100e861019536600461097b565b6107c6565b6100d36101a836600461097b565b6107d8565b600082116101d95760405160e560020a62461bcd0281526004016101d090610ba2565b60405180910390fd5b600160a060020a03831660009081526003602052604090205460ff166102145760405160e560020a62461bcd0281526004016101d090610b6b565b610258811015801561022957506301e1338081105b6102485760405160e560020a62461bcd0281526004016101d090610b34565b60006102526108ab565b6040517f23b872dd0000000000000000000000000000000000000000000000000000000081529091508490600160a060020a038216906323b872dd906102a090339030908990600401610a6d565b602060405180830381600087803b1580156102ba57600080fd5b505af11580156102ce573d6000803e3d6000fd5b505050506040513d601f19601f820116820180604052508101906102f29190610a04565b6102fb57600080fd5b60058054600090815260026020908152604080832086845282528083208890558254600181810185558480527f290decd9548b62a8d60345a988386fc84ba6bc95484008f6362f93160ef3e56390910187905581516101008101835290815293548483015283810188905260608401839052600160a060020a0389166080850152825481518184028101840190925280825292938493909260a08401929185918301828280156103ca57602002820191906000526020600020905b8154815260200190600101908083116103b6575b50505091835250504260208083019190915260409182018890526005805460009081526004808452908490208551815460ff1916901515178155858401516001820155938501516002850155606085015160038501556080850151908401805473ffffffffffffffffffffffffffffffffffffffff1916600160a060020a0390921691909117905560a084015180519495508594610470939285019291909101906108ff565b5060c0820151816006015560e082015181600701559050506005547f42ec2e0bdfc50680a77511c1785be2a2c2bfb3ee1159a2e6de27192eb12ec3b1426040516104ba9190610c45565b60405180910390a2600580549060006104d283610c4e565b919050555050505050505050565b600260209081526000928352604080842090915290825290205481565b6105056108fb565b600160a060020a0316610516610596565b600160a060020a03161461053f5760405160e560020a62461bcd0281526004016101d090610c10565b60008054604051600160a060020a03909116907f8be0079c531659141344cd1fd0a4f28419497f9722a3daafe3b4186f6b6457e0908390a36000805473ffffffffffffffffffffffffffffffffffffffff19169055565b600054600160a060020a031690565b6105ad6108fb565b600160a060020a03166105be610596565b600160a060020a0316146105e75760405160e560020a62461bcd0281526004016101d090610c10565b600160a060020a03919091166000908152600360205260409020805460ff1916911515919091179055565b6004602081905260009182526040909120805460018201546002830154600384015494840154600685015460079095015460ff9094169592949193600160a060020a03909116919087565b60036020526000908152604090205460ff1681565b60008281526004602052604090205460ff166106a35760405160e560020a62461bcd0281526004016101d090610bd9565b600081116106c65760405160e560020a62461bcd0281526004016101d090610ba2565b60008281526004602081905260409182902081015491517f23b872dd000000000000000000000000000000000000000000000000000000008152600160a060020a039092169182916323b872dd916107249133913091889101610a6d565b602060405180830381600087803b15801561073e57600080fd5b505af1158015610752573d6000803e3d6000fd5b505050506040513d601f19601f820116820180604052508101906107769190610a04565b61077f57600080fd5b8133600160a060020a03167f90890809c654f11d6e72a28fa60149770a0d11ec6c92319d6ceb2bb0a4ea1a15426040516107b99190610c45565b60405180910390a3505050565b60016020526000908152604090205481565b6107e06108fb565b600160a060020a03166107f1610596565b600160a060020a03161461081a5760405160e560020a62461bcd0281526004016101d090610c10565b600160a060020a0381166108435760405160e560020a62461bcd0281526004016101d090610ad7565b60008054604051600160a060020a03808516939216917f8be0079c531659141344cd1fd0a4f28419497f9722a3daafe3b4186f6b6457e091a36000805473ffffffffffffffffffffffffffffffffffffffff1916600160a060020a0392909216919091179055565b336000908152600160205260408120546108e757600680543360009081526001602052604081208290559091906108e183610c4e565b91905055505b503360009081526001602052604090205490565b3390565b82805482825590600052602060002090810192821561093a579160200282015b8281111561093a57825182559160200191906001019061091f565b5061094692915061094a565b5090565b5b80821115610946576000815560010161094b565b8035600160a060020a038116811461097657600080fd5b919050565b60006020828403121561098c578081fd5b6109958261095f565b9392505050565b600080604083850312156109ae578081fd5b6109b78361095f565b915060208301356109c781610c8e565b809150509250929050565b6000806000606084860312156109e6578081fd5b6109ef8461095f565b95602085013595506040909401359392505050565b600060208284031215610a15578081fd5b815161099581610c8e565b600060208284031215610a31578081fd5b5035919050565b60008060408385031215610a4a578182fd5b50508035926020909101359150565b600160a060020a0391909116815260200190565b600160a060020a039384168152919092166020820152604081019190915260600190565b901515815260200190565b9615158752602087019590955260408601939093526060850191909152600160a060020a0316608084015260a083015260c082015260e00190565b60208082526026908201527f4f776e61626c653a206e6577206f776e657220697320746865207a65726f206160408201527f6464726573730000000000000000000000000000000000000000000000000000606082015260800190565b60208082526010908201527f496e76616c6964206475726174696f6e00000000000000000000000000000000604082015260600190565b60208082526012908201527f496e76616c696420636f6c6c61746572616c0000000000000000000000000000604082015260600190565b6020808252600e908201527f496e76616c696420616d6f756e74000000000000000000000000000000000000604082015260600190565b60208082526015908201527f4c6f747465727920646f65736e27742065786973740000000000000000000000604082015260600190565b6020808252818101527f4f776e61626c653a2063616c6c6572206973206e6f7420746865206f776e6572604082015260600190565b90815260200190565b6000600019821415610c87577f4e487b710000000000000000000000000000000000000000000000000000000081526011600452602481fd5b5060010190565b8015158114610c9c57600080fd5b5056fea26469706673582212206887b28aae8317cab85b5fd48514ae2ef95fd288d5dba4dad64b6d7e8e35ffdb64736f6c63430008000033",
  "immutableReferences": {},
  "source": "// SPDX-License-Identifier: MIT\npragma solidity 0.8.0;\n\nimport {IERC20} from \"@openzeppelin/contracts/token/ERC20/IERC20.sol\";\nimport \"@openzeppelin/contracts/utils/math/SafeMath.sol\";\nimport \"@openzeppelin/contracts/access/Ownable.sol\";\n\ncontract Lottery is Ownable {\n    event Create(uint indexed lotteryID, uint _time);\n    event Deposit(address indexed member, uint indexed amount, uint _time);\n    event Redeem(address indexed member, uint indexed amount, uint _time);\n\n    // Member ID by wallet\n    mapping(address => uint) public member;\n\n    // Each member's liquidity balance per lottery\n    mapping(uint => mapping(uint => uint)) public liquidityBalances;\n\n    mapping(address => bool) public collateralList;\n\n    struct LotteryStruct {\n        bool exist;\n        uint lotteryID;\n        uint liquidity;\n        int award;\n        address collateral;\n        uint[] liquidityProviders;\n        uint created;\n        uint duration;\n        // uint totalDeposit;\n        // uint totalRedemption;\n        // Status status;\n    }\n\n    mapping(uint => LotteryStruct) public lottery;\n\n    uint internal currentLotteryID = 1;\n    uint internal currentMemberID = 1;\n\n    constructor() {\n        \n    }\n    \n    function create(address _collateral, uint _amount, uint _duration) external {\n        require(_amount > 0, \"Invalid amount\");\n        require(collateralList[_collateral] != false, \"Invalid collateral\");\n        require(\n            _duration >= 600 seconds && _duration < 365 days,\n            \"Invalid duration\"\n        );\n\n        uint memberID = register();\n\n        IERC20 collateral = IERC20(_collateral);\n\n        //Deposit collateral\n        require(collateral.transferFrom(msg.sender, address(this), _amount));\n\n        //Set liquidity balance for current member\n        liquidityBalances[currentLotteryID][memberID] = _amount;\n\n        uint[] storage _liquidityProviders;\n        _liquidityProviders.push(memberID);\n\n        LotteryStruct memory lotteryStruct =\n            LotteryStruct({\n                exist: true,\n                // status: Status.Pending,\n                lotteryID: currentLotteryID,\n                liquidity: _amount,\n                award: 0,\n                created: block.timestamp,\n                duration: _duration,\n                collateral: _collateral,\n                liquidityProviders: _liquidityProviders\n            });\n\n        lottery[currentLotteryID] = lotteryStruct;\n\n        emit Create(currentLotteryID, block.timestamp);\n\n        currentLotteryID++;\n    }\n\n    function register() internal returns (uint) {\n        if (member[msg.sender] == 0) {\n            member[msg.sender] = currentMemberID;\n            currentMemberID++;\n        }\n\n        return member[msg.sender];\n    }\n    \n    function deposit(uint _lotteryID, uint _amount) external {\n        require(lottery[_lotteryID].exist, \"Lottery doesn't exist\");\n        require(_amount > 0, \"Invalid amount\");\n\n        IERC20 collateral = IERC20(lottery[_lotteryID].collateral);\n\n        //Deposit collateral\n        require(collateral.transferFrom(msg.sender, address(this), _amount));\n\n        //Increase member balance\n        // balance[msg.sender] = SafeMath.add(\n        //     balance[msg.sender],\n        //     _amount\n        // );\n\n        emit Deposit(msg.sender, _amount, block.timestamp);\n    }\n\n    // function redeem(uint _lotteryID) external {\n    //     require(lottery[_lotteryID].exist, \"Lottery doesn't exist\");\n\n        //Send collateral to user\n        // IERC20 collateral = IERC20(lottery[_lotteryID].collateral);\n\n        // require(collateral.approve(msg.sender, balance[msg.sender]));\n        // require(collateral.transferFrom(address(this), msg.sender, balance[msg.sender]));\n\n        // emit Redeem(msg.sender, balance[msg.sender], block.timestamp);\n\n        // balance[msg.sender] = 0;\n    // }\n\n    function setCollateral(\n        address _collateral,\n        bool _value\n    ) public onlyOwner {\n        collateralList[_collateral] = _value;\n    }\n}",
  "sourcePath": "/Users/ianidi/Desktop/work/lottery/contracts/Lottery.sol",
  "compiler": {
    "name": "solc",
    "version": "0.8.0+commit.c7dfd78e.Emscripten.clang"
  },
  "schemaVersion": "3.3.4",
  "updatedAt": "2021-05-04T13:55:42.614Z",
  "devdoc": {
    "kind": "dev",
    "methods": {
      "owner()": {
        "details": "Returns the address of the current owner."
      },
      "renounceOwnership()": {
        "details": "Leaves the contract without owner. It will not be possible to call `onlyOwner` functions anymore. Can only be called by the current owner. NOTE: Renouncing ownership will leave the contract without an owner, thereby removing any functionality that is only available to the owner."
      },
      "transferOwnership(address)": {
        "details": "Transfers ownership of the contract to a new account (`newOwner`). Can only be called by the current owner."
      }
    },
    "version": 1
  },
  "userdoc": {
    "kind": "user",
    "methods": {},
    "version": 1
  }
}