{
  "contractName": "Lottery",
  "abi": [
    {
      "inputs": [],
      "stateMutability": "nonpayable",
      "type": "constructor"
    },
    {
      "anonymous": false,
      "inputs": [
        {
          "indexed": true,
          "internalType": "address",
          "name": "member",
          "type": "address"
        },
        {
          "indexed": true,
          "internalType": "uint256",
          "name": "lotteryID",
          "type": "uint256"
        },
        {
          "indexed": false,
          "internalType": "uint256",
          "name": "amount",
          "type": "uint256"
        },
        {
          "indexed": false,
          "internalType": "uint256",
          "name": "_time",
          "type": "uint256"
        }
      ],
      "name": "Create",
      "type": "event"
    },
    {
      "anonymous": false,
      "inputs": [
        {
          "indexed": true,
          "internalType": "address",
          "name": "member",
          "type": "address"
        },
        {
          "indexed": true,
          "internalType": "uint256",
          "name": "lotteryID",
          "type": "uint256"
        },
        {
          "indexed": false,
          "internalType": "uint256",
          "name": "amount",
          "type": "uint256"
        },
        {
          "indexed": false,
          "internalType": "uint256",
          "name": "_time",
          "type": "uint256"
        }
      ],
      "name": "Deposit",
      "type": "event"
    },
    {
      "anonymous": false,
      "inputs": [
        {
          "indexed": true,
          "internalType": "address",
          "name": "previousOwner",
          "type": "address"
        },
        {
          "indexed": true,
          "internalType": "address",
          "name": "newOwner",
          "type": "address"
        }
      ],
      "name": "OwnershipTransferred",
      "type": "event"
    },
    {
      "anonymous": false,
      "inputs": [
        {
          "indexed": true,
          "internalType": "address",
          "name": "member",
          "type": "address"
        },
        {
          "indexed": true,
          "internalType": "uint256",
          "name": "lotteryID",
          "type": "uint256"
        },
        {
          "indexed": false,
          "internalType": "uint256",
          "name": "betAmount",
          "type": "uint256"
        },
        {
          "indexed": false,
          "internalType": "bool",
          "name": "gameResult",
          "type": "bool"
        },
        {
          "indexed": false,
          "internalType": "uint256",
          "name": "_time",
          "type": "uint256"
        }
      ],
      "name": "Play",
      "type": "event"
    },
    {
      "anonymous": false,
      "inputs": [
        {
          "indexed": true,
          "internalType": "address",
          "name": "member",
          "type": "address"
        },
        {
          "indexed": true,
          "internalType": "uint256",
          "name": "lotteryID",
          "type": "uint256"
        },
        {
          "indexed": false,
          "internalType": "uint256",
          "name": "amount",
          "type": "uint256"
        },
        {
          "indexed": false,
          "internalType": "uint256",
          "name": "_time",
          "type": "uint256"
        }
      ],
      "name": "Redeem",
      "type": "event"
    },
    {
      "inputs": [
        {
          "internalType": "address",
          "name": "",
          "type": "address"
        }
      ],
      "name": "collateralList",
      "outputs": [
        {
          "internalType": "bool",
          "name": "",
          "type": "bool"
        }
      ],
      "stateMutability": "view",
      "type": "function"
    },
    {
      "inputs": [],
      "name": "currentLotteryID",
      "outputs": [
        {
          "internalType": "uint256",
          "name": "",
          "type": "uint256"
        }
      ],
      "stateMutability": "view",
      "type": "function"
    },
    {
      "inputs": [],
      "name": "currentMemberID",
      "outputs": [
        {
          "internalType": "uint256",
          "name": "",
          "type": "uint256"
        }
      ],
      "stateMutability": "view",
      "type": "function"
    },
    {
      "inputs": [
        {
          "internalType": "uint256",
          "name": "",
          "type": "uint256"
        },
        {
          "internalType": "uint256",
          "name": "",
          "type": "uint256"
        }
      ],
      "name": "liquidityBalances",
      "outputs": [
        {
          "internalType": "uint256",
          "name": "",
          "type": "uint256"
        }
      ],
      "stateMutability": "view",
      "type": "function"
    },
    {
      "inputs": [
        {
          "internalType": "uint256",
          "name": "",
          "type": "uint256"
        }
      ],
      "name": "lottery",
      "outputs": [
        {
          "internalType": "bool",
          "name": "exist",
          "type": "bool"
        },
        {
          "internalType": "enum Lottery.Status",
          "name": "status",
          "type": "uint8"
        },
        {
          "internalType": "uint256",
          "name": "lotteryID",
          "type": "uint256"
        },
        {
          "internalType": "uint256",
          "name": "liquidity",
          "type": "uint256"
        },
        {
          "internalType": "uint256",
          "name": "maxBetPercent",
          "type": "uint256"
        },
        {
          "internalType": "uint256",
          "name": "created",
          "type": "uint256"
        },
        {
          "internalType": "uint256",
          "name": "duration",
          "type": "uint256"
        },
        {
          "internalType": "address",
          "name": "collateral",
          "type": "address"
        }
      ],
      "stateMutability": "view",
      "type": "function"
    },
    {
      "inputs": [
        {
          "internalType": "address",
          "name": "",
          "type": "address"
        }
      ],
      "name": "member",
      "outputs": [
        {
          "internalType": "uint256",
          "name": "",
          "type": "uint256"
        }
      ],
      "stateMutability": "view",
      "type": "function"
    },
    {
      "inputs": [],
      "name": "owner",
      "outputs": [
        {
          "internalType": "address",
          "name": "",
          "type": "address"
        }
      ],
      "stateMutability": "view",
      "type": "function"
    },
    {
      "inputs": [],
      "name": "renounceOwnership",
      "outputs": [],
      "stateMutability": "nonpayable",
      "type": "function"
    },
    {
      "inputs": [
        {
          "internalType": "address",
          "name": "newOwner",
          "type": "address"
        }
      ],
      "name": "transferOwnership",
      "outputs": [],
      "stateMutability": "nonpayable",
      "type": "function"
    },
    {
      "inputs": [
        {
          "internalType": "address",
          "name": "_collateral",
          "type": "address"
        },
        {
          "internalType": "uint256",
          "name": "_liquidityAmount",
          "type": "uint256"
        },
        {
          "internalType": "uint256",
          "name": "_maxBetPercent",
          "type": "uint256"
        },
        {
          "internalType": "uint256",
          "name": "_duration",
          "type": "uint256"
        }
      ],
      "name": "create",
      "outputs": [],
      "stateMutability": "nonpayable",
      "type": "function"
    },
    {
      "inputs": [
        {
          "internalType": "uint256",
          "name": "_lotteryID",
          "type": "uint256"
        },
        {
          "internalType": "uint256",
          "name": "_betAmount",
          "type": "uint256"
        }
      ],
      "name": "play",
      "outputs": [],
      "stateMutability": "nonpayable",
      "type": "function"
    },
    {
      "inputs": [
        {
          "internalType": "uint256",
          "name": "_lotteryID",
          "type": "uint256"
        },
        {
          "internalType": "uint256",
          "name": "_liquidityAmount",
          "type": "uint256"
        }
      ],
      "name": "addLiquidity",
      "outputs": [],
      "stateMutability": "nonpayable",
      "type": "function"
    },
    {
      "inputs": [
        {
          "internalType": "uint256",
          "name": "_lotteryID",
          "type": "uint256"
        }
      ],
      "name": "redeem",
      "outputs": [],
      "stateMutability": "nonpayable",
      "type": "function"
    },
    {
      "inputs": [
        {
          "internalType": "address",
          "name": "_collateral",
          "type": "address"
        },
        {
          "internalType": "bool",
          "name": "_value",
          "type": "bool"
        }
      ],
      "name": "setCollateral",
      "outputs": [],
      "stateMutability": "nonpayable",
      "type": "function"
    },
    {
      "inputs": [
        {
          "internalType": "uint256",
          "name": "_lotteryID",
          "type": "uint256"
        },
        {
          "internalType": "address",
          "name": "_member",
          "type": "address"
        }
      ],
      "name": "viewLiquidity",
      "outputs": [
        {
          "internalType": "uint256",
          "name": "",
          "type": "uint256"
        },
        {
          "internalType": "uint256",
          "name": "",
          "type": "uint256"
        }
      ],
      "stateMutability": "view",
      "type": "function"
    }
  ],
  "bytecode": "0x60806040526001600555600160065534801561001a57600080fd5b50600061002e64010000000061007d810204565b60008054600160a060020a031916600160a060020a0383169081178255604051929350917f8be0079c531659141344cd1fd0a4f28419497f9722a3daafe3b4186f6b6457e0908290a350610081565b3390565b6119b6806100906000396000f3fe608060405234801561001057600080fd5b5060043610610112576000357c0100000000000000000000000000000000000000000000000000000000900480638eb80ff3116100b4578063b1c9e93811610083578063b1c9e93814610203578063db006a7514610223578063e7d4539e14610236578063f2fde38b1461024957610112565b80638eb80ff3146101ae57806394d31640146101b65780639cd441da146101c9578063a57d1560146101dc57610112565b8063715018a6116100f0578063715018a6146101695780637bc49a95146101735780638c71ec16146101865780638da5cb5b1461019957610112565b806338b014ca146101175780635eeb1a5c14610135578063611d026314610148575b600080fd5b61011f61025c565b60405161012c919061189d565b60405180910390f35b61011f6101433660046113c2565b610262565b61015b610156366004611397565b61027f565b60405161012c9291906118bc565b6101716103f4565b005b6101716101813660046113c2565b61048d565b61017161019436600461132b565b6107c2565b6101a1610aa5565b60405161012c91906113e3565b61011f610ab4565b6101716101c43660046112f5565b610aba565b6101716101d73660046113c2565b610b27565b6101ef6101ea36600461137f565b610d87565b60405161012c98979695949392919061143f565b6102166102113660046112db565b610dd2565b60405161012c9190611434565b61017161023136600461137f565b610de7565b61011f6102443660046112db565b6110dc565b6101716102573660046112db565b6110ee565b60055481565b600360209081526000928352604080842090915290825290205481565b600082815260016020526040812054819060ff166102bb5760405160e560020a62461bcd0281526004016102b29061171e565b60405180910390fd5b600160a060020a0383166000908152600260205260409020546102f35760405160e560020a62461bcd0281526004016102b290611755565b6000848152600360209081526040808320600160a060020a03871684526002835281842054845290915290205461033f5760405160e560020a62461bcd0281526004016102b290611607565b6000848152600360209081526040808320600160a060020a03871684526002808452828520548552908352818420548885526001909352908320015461038f91610388916111c1565b60646111d4565b600086815260016020526040812060020154919250906103ba906103b49060646111c1565b836111d4565b6000878152600360209081526040808320600160a060020a038a168452600283528184205484529091529020549450925050509250929050565b6103fc6111e0565b600160a060020a031661040d610aa5565b600160a060020a0316146104365760405160e560020a62461bcd0281526004016102b2906117c3565b60008054604051600160a060020a03909116907f8be0079c531659141344cd1fd0a4f28419497f9722a3daafe3b4186f6b6457e0908390a36000805473ffffffffffffffffffffffffffffffffffffffff19169055565b60008281526001602052604090205460ff166104be5760405160e560020a62461bcd0281526004016102b29061171e565b60008083815260016020526040902054610100900460ff1660028111156104f85760e060020a634e487b7102600052602160045260246000fd5b146105185760405160e560020a62461bcd0281526004016102b29061182f565b6000811161053b5760405160e560020a62461bcd0281526004016102b2906117f8565b610544826111e4565b6105635760405160e560020a62461bcd0281526004016102b290611866565b6000828152600160205260409020600381015460029091015461058b906103889084906111c1565b11156105ac5760405160e560020a62461bcd0281526004016102b29061169b565b6000828152600160205260409081902060060154905160e060020a6323b872dd028152600160a060020a039091169081906323b872dd906105f5903390309087906004016113f7565b602060405180830381600087803b15801561060f57600080fd5b505af1158015610623573d6000803e3d6000fd5b505050506040513d601f19601f820116820180604052508101906106479190611363565b61065057600080fd5b600061065b84611256565b905080156107475781600160a060020a03166323b872dd333061067f8760026111d4565b6040518463ffffffff167c01000000000000000000000000000000000000000000000000000000000281526004016106b9939291906113f7565b602060405180830381600087803b1580156106d357600080fd5b505af11580156106e7573d6000803e3d6000fd5b505050506040513d601f19601f8201168201806040525081019061070b9190611363565b61071457600080fd5b600084815260016020526040902060020154610730908461125c565b600085815260016020526040902060020155610776565b6000848152600160205260409020600201546107639084611268565b6000858152600160205260409020600201555b8333600160a060020a03167f198848f6428a658420e44522c06ead6b3c3d1ee31056ba9c74fe1baf385a5e408584426040516107b4939291906118a6565b60405180910390a350505050565b600083116107e55760405160e560020a62461bcd0281526004016102b29061178c565b600160a060020a03841660009081526004602052604090205460ff166108205760405160e560020a62461bcd0281526004016102b290611599565b80158061083d5750610258811015801561083d57506301e1338081105b61085c5760405160e560020a62461bcd0281526004016102b290611562565b6001821015801561086e575060328211155b61088d5760405160e560020a62461bcd0281526004016102b290611664565b6000610897611274565b60405160e060020a6323b872dd0281529091508590600160a060020a038216906323b872dd906108cf90339030908a906004016113f7565b602060405180830381600087803b1580156108e957600080fd5b505af11580156108fd573d6000803e3d6000fd5b505050506040513d601f19601f820116820180604052508101906109219190611363565b61092a57600080fd5b60058054600090815260036020908152604080832086845282528083208990558051610100808201835260018083528285018681529654838501819052606084018d9052608084018c90524260a085015260c084018b9052600160a060020a038e1660e0850152865290935292208251815460ff1916901515178082559351929384939192839161ff001916908360028111156109da5760e060020a634e487b7102600052602160045260246000fd5b021790555060408201518160010155606082015181600201556080820151816003015560a0820151816004015560c0820151816005015560e08201518160060160006101000a815481600160a060020a030219169083600160a060020a0316021790555090505060055433600160a060020a03167fe3a07e2ac405f9c908f600ba464ed28dd28f04e308ccc0610a33ca7ed1c59abb8842604051610a7f9291906118bc565b60405180910390a360058054906000610a978361193b565b919050555050505050505050565b600054600160a060020a031690565b60065481565b610ac26111e0565b600160a060020a0316610ad3610aa5565b600160a060020a031614610afc5760405160e560020a62461bcd0281526004016102b2906117c3565b600160a060020a03919091166000908152600460205260409020805460ff1916911515919091179055565b60008281526001602052604090205460ff16610b585760405160e560020a62461bcd0281526004016102b29061171e565b6001600083815260016020526040902054610100900460ff166002811115610b935760e060020a634e487b7102600052602160045260246000fd5b141580610ba45750610ba4826111e4565b610bc35760405160e560020a62461bcd0281526004016102b290611866565b60008111610be65760405160e560020a62461bcd0281526004016102b2906115d0565b6000610bf0611274565b6000848152600160205260409081902060060154905160e060020a6323b872dd028152919250600160a060020a03169081906323b872dd90610c3a903390309088906004016113f7565b602060405180830381600087803b158015610c5457600080fd5b505af1158015610c68573d6000803e3d6000fd5b505050506040513d601f19601f82011682018060405250810190610c8c9190611363565b610c9557600080fd5b6000848152600360209081526040808320858452909152902054610cb99084611268565b6000858152600360209081526040808320868452825280832093909355868252600190522060020154610cec9084611268565b600085815260016020526040902060028082019290925554610100900460ff1681811115610d2d5760e060020a634e487b7102600052602160045260246000fd5b1415610d4b576000848152600160205260409020805461ff00191690555b8333600160a060020a03167f36af321ec8d3c75236829c5317affd40ddb308863a1236d2d277a4025cccee1e85426040516107b49291906118bc565b6001602081905260009182526040909120805491810154600282015460038301546004840154600585015460069095015460ff808816976101009004169590600160a060020a031688565b60046020526000908152604090205460ff1681565b60008181526001602052604090205460ff16610e185760405160e560020a62461bcd0281526004016102b29061171e565b6000610e22611274565b6000838152600360209081526040808320848452909152902054909150610e5e5760405160e560020a62461bcd0281526004016102b2906114a8565b60008281526003602090815260408083208484528252808320548584526001909252822060020154610e9391610388916111c1565b60008481526001602052604081206002015491925090610eb8906103b49060646111c1565b600085815260016020526040908190206006015490517f095ea7b3000000000000000000000000000000000000000000000000000000008152919250600160a060020a031690819063095ea7b390610f16903390869060040161141b565b602060405180830381600087803b158015610f3057600080fd5b505af1158015610f44573d6000803e3d6000fd5b505050506040513d601f19601f82011682018060405250810190610f689190611363565b610f7157600080fd5b60405160e060020a6323b872dd028152600160a060020a038216906323b872dd90610fa4903090339087906004016113f7565b602060405180830381600087803b158015610fbe57600080fd5b505af1158015610fd2573d6000803e3d6000fd5b505050506040513d601f19601f82011682018060405250810190610ff69190611363565b610fff57600080fd5b6000858152600360209081526040808320878452825280832083905587835260019091529020600201546110469061104161103b8260646111c1565b866111d4565b61125c565b600086815260016020526040908190206002019190915551859033907fbd5034ffbd47e4e72a94baa2cdb74c6fad73cb3bcdc13036b72ec8306f5a76469061109190869042906118bc565b60405180910390a36000858152600160205260409020600201546110cb576000858152600160205260409020805461ff0019166102001790555b6110d4856111e4565b505050505050565b60026020526000908152604090205481565b6110f66111e0565b600160a060020a0316611107610aa5565b600160a060020a0316146111305760405160e560020a62461bcd0281526004016102b2906117c3565b600160a060020a0381166111595760405160e560020a62461bcd0281526004016102b290611505565b60008054604051600160a060020a03808516939216917f8be0079c531659141344cd1fd0a4f28419497f9722a3daafe3b4186f6b6457e091a36000805473ffffffffffffffffffffffffffffffffffffffff1916600160a060020a0392909216919091179055565b60006111cd82846118e2565b9392505050565b60006111cd8284611905565b3390565b60008181526001602052604081206005015461120257506001611251565b60008281526001602052604090206004810154600590910154429161122691611268565b101561123457506001611251565b506000818152600160205260408120805461ff0019166101001790555b919050565b50600090565b60006111cd8284611924565b60006111cd82846118ca565b336000908152600260205260408120546112b057600680543360009081526002602052604081208290559091906112aa8361193b565b91905055505b503360009081526002602052604090205490565b8035600160a060020a038116811461125157600080fd5b6000602082840312156112ec578081fd5b6111cd826112c4565b60008060408385031215611307578081fd5b611310836112c4565b915060208301356113208161196f565b809150509250929050565b60008060008060808587031215611340578182fd5b611349856112c4565b966020860135965060408601359560600135945092505050565b600060208284031215611374578081fd5b81516111cd8161196f565b600060208284031215611390578081fd5b5035919050565b600080604083850312156113a9578182fd5b823591506113b9602084016112c4565b90509250929050565b600080604083850312156113d4578182fd5b50508035926020909101359150565b600160a060020a0391909116815260200190565b600160a060020a039384168152919092166020820152604081019190915260600190565b600160a060020a03929092168252602082015260400190565b901515815260200190565b881515815261010081016003891061146a5760e060020a634e487b7102600052602160045260246000fd5b602082019890985260408101969096526060860194909452608085019290925260a084015260c0830152600160a060020a031660e090910152919050565b60208082526033908201527f596f75206469646e27742070726f76696465206c6971756964697479206f722060408201527f616c72656164792072656465656d656420697400000000000000000000000000606082015260800190565b60208082526026908201527f4f776e61626c653a206e6577206f776e657220697320746865207a65726f206160408201527f6464726573730000000000000000000000000000000000000000000000000000606082015260800190565b60208082526010908201527f496e76616c6964206475726174696f6e00000000000000000000000000000000604082015260600190565b60208082526012908201527f496e76616c696420636f6c6c61746572616c0000000000000000000000000000604082015260600190565b6020808252600e908201527f496e76616c696420616d6f756e74000000000000000000000000000000000000604082015260600190565b6020808252602e908201527f4d656d626572206469646e27742070726f76696465206c69717569646974792060408201527f6f722072656465656d6564206974000000000000000000000000000000000000606082015260800190565b60208082526017908201527f496e76616c6964206d6178206265742070657263656e74000000000000000000604082015260600190565b60208082526048908201527f42657420616d6f756e74202520696e2072656c6174696f6e20746f20706f6f6c60408201527f2073697a652069732067726561746572207468616e20706f6f6c206d6178426560608201527f7450657263656e74000000000000000000000000000000000000000000000000608082015260a00190565b60208082526015908201527f4c6f747465727920646f65736e27742065786973740000000000000000000000604082015260600190565b60208082526014908201527f4d656d62657220646f65736e2774206578697374000000000000000000000000604082015260600190565b60208082526018908201527f496e76616c6964206c697175696469747920616d6f756e740000000000000000604082015260600190565b6020808252818101527f4f776e61626c653a2063616c6c6572206973206e6f7420746865206f776e6572604082015260600190565b60208082526012908201527f496e76616c69642062657420616d6f756e740000000000000000000000000000604082015260600190565b60208082526016908201527f4c6f7474657279206973206e6f742072756e6e696e6700000000000000000000604082015260600190565b60208082526011908201527f4c6f74746572792068617320656e646564000000000000000000000000000000604082015260600190565b90815260200190565b9283529015156020830152604082015260600190565b918252602082015260400190565b600082198211156118dd576118dd611956565b500190565b6000826119005760e060020a634e487b710281526012600452602481fd5b500490565b600081600019048311821515161561191f5761191f611956565b500290565b60008282101561193657611936611956565b500390565b600060001982141561194f5761194f611956565b5060010190565b60e060020a634e487b7102600052601160045260246000fd5b801515811461197d57600080fd5b5056fea2646970667358221220a0ab8ea42b0360626d3eb72dc3cc9386f20117152cfea4a1e6bbce1ac30a90a564736f6c63430008000033",
  "immutableReferences": {},
  "source": "// SPDX-License-Identifier: MIT\npragma solidity 0.8.0;\n\nimport {IERC20} from \"@openzeppelin/contracts/token/ERC20/IERC20.sol\";\nimport \"@openzeppelin/contracts/utils/math/SafeMath.sol\";\nimport \"@openzeppelin/contracts/access/Ownable.sol\";\n\ncontract Lottery is Ownable {\n    event Create(address indexed member, uint indexed lotteryID, uint amount, uint _time);\n    event Deposit(address indexed member, uint indexed lotteryID, uint amount, uint _time);\n    event Redeem(address indexed member, uint indexed lotteryID, uint amount, uint _time);\n    event Play(address indexed member, uint indexed lotteryID, uint betAmount, bool gameResult, uint _time);\n\n    enum Status {Active, Closed, NoLiquidity}\n\n    struct LotteryStruct {\n        bool exist;\n        Status status;\n        uint lotteryID;\n        uint liquidity;\n        uint maxBetPercent;\n        uint created;\n        uint duration;\n        address collateral;\n    }\n\n    mapping(uint => LotteryStruct) public lottery;\n\n    // Wallet (msg.sender) => MemberID\n    mapping(address => uint) public member;\n\n    // LotteryID => (MemberID => liquidity balance)\n    mapping(uint => mapping(uint => uint)) public liquidityBalances;\n\n    // Tokens allowed to be used as collateral\n    mapping(address => bool) public collateralList;\n\n    uint public currentLotteryID = 1;\n    uint public currentMemberID = 1;\n\n    constructor() { }\n    \n    // Create a new lottery\n    function create(address _collateral, uint _liquidityAmount, uint _maxBetPercent, uint _duration) external {\n        require(_liquidityAmount > 0, \"Invalid liquidity amount\");\n        require(collateralList[_collateral] != false, \"Invalid collateral\");\n        require(_duration == 0 || (_duration >= 600 seconds && _duration < 365 days), \"Invalid duration\");\n        require(_maxBetPercent >= 1 && _maxBetPercent <= 50, \"Invalid max bet percent\");\n\n        uint memberID = getMemberID();\n\n        IERC20 collateral = IERC20(_collateral);\n\n        // Deposit collateral\n        require(collateral.transferFrom(msg.sender, address(this), _liquidityAmount));\n\n        // Set liquidity balance for member\n        liquidityBalances[currentLotteryID][memberID] = _liquidityAmount;\n\n        LotteryStruct memory lotteryStruct =\n            LotteryStruct({\n                exist: true,\n                status: Status.Active,\n                lotteryID: currentLotteryID,\n                liquidity: _liquidityAmount,\n                maxBetPercent: _maxBetPercent,\n                created: block.timestamp,\n                duration: _duration,\n                collateral: _collateral\n            });\n\n        lottery[currentLotteryID] = lotteryStruct;\n\n        emit Create(msg.sender, currentLotteryID, _liquidityAmount, block.timestamp);\n\n        currentLotteryID++;\n    }\n\n    // Play the lottery\n    function play(uint _lotteryID, uint _betAmount) external {\n        require(lottery[_lotteryID].exist, \"Lottery doesn't exist\");\n        require(lottery[_lotteryID].status == Status.Active, \"Lottery is not running\");\n        require(_betAmount > 0, \"Invalid bet amount\");\n        require(checkLotteryDuration(_lotteryID), \"Lottery has ended\");\n\n        require(SafeMath.mul(SafeMath.div(_betAmount, lottery[_lotteryID].liquidity), uint(100)) <= lottery[_lotteryID].maxBetPercent, \"Bet amount % in relation to pool size is greater than pool maxBetPercent\");\n\n        IERC20 collateral = IERC20(lottery[_lotteryID].collateral);\n\n        // Withdraw collateral from member\n        require(collateral.transferFrom(msg.sender, address(this), _betAmount));\n\n        bool winner = determineGameResult(_lotteryID);\n\n        if (winner) {\n            // If member won the game, send back (withdrawn collateral * 2) to him\n            require(collateral.transferFrom(msg.sender, address(this), SafeMath.mul(_betAmount, uint(2))));\n            \n            // Decrease lottery liquidity value\n            lottery[_lotteryID].liquidity = SafeMath.sub(\n                lottery[_lotteryID].liquidity,\n                _betAmount\n            );\n        } else {\n            // Increase lottery liquidity value\n            lottery[_lotteryID].liquidity = SafeMath.add(\n                lottery[_lotteryID].liquidity,\n                _betAmount\n            );\n        }\n\n        emit Play(msg.sender, _lotteryID, _betAmount, winner, block.timestamp);\n    }\n    \n    // Add liquidity to existing lottery\n    function addLiquidity(uint _lotteryID, uint _liquidityAmount) external {\n        require(lottery[_lotteryID].exist, \"Lottery doesn't exist\");\n        require(lottery[_lotteryID].status != Status.Closed || checkLotteryDuration(_lotteryID), \"Lottery has ended\");\n        require(_liquidityAmount > 0, \"Invalid amount\");\n\n        uint memberID = getMemberID();\n\n        IERC20 collateral = IERC20(lottery[_lotteryID].collateral);\n\n        // Deposit collateral\n        require(collateral.transferFrom(msg.sender, address(this), _liquidityAmount));\n\n        //Increase liquidity balance for member\n        liquidityBalances[_lotteryID][memberID] = SafeMath.add(\n            liquidityBalances[_lotteryID][memberID],\n            _liquidityAmount\n        );\n\n        //Increase lottery liquidity value\n        lottery[_lotteryID].liquidity = SafeMath.add(\n            lottery[_lotteryID].liquidity,\n            _liquidityAmount\n        );\n\n        // Since we added liquidity, set status Active in case lottery was paused because of no liquidity\n        if(lottery[_lotteryID].status == Status.NoLiquidity) {\n            lottery[_lotteryID].status = Status.Active;\n        }\n\n        emit Deposit(msg.sender, _lotteryID, _liquidityAmount, block.timestamp);\n    }\n\n    //TODO: \n    function redeem(uint _lotteryID) external {\n        require(lottery[_lotteryID].exist, \"Lottery doesn't exist\");\n\n        uint memberID = getMemberID();\n\n        require(liquidityBalances[_lotteryID][memberID] > 0, \"You didn't provide liquidity or already redeemed it\");\n\n        // Determine how much member invested % from total liquidity pool\n        uint memberLiquidityPercent = SafeMath.mul(SafeMath.div(liquidityBalances[_lotteryID][memberID], lottery[_lotteryID].liquidity), uint(100));\n\n        // Determine how much member can redeem\n        uint redeemableLiquidity = SafeMath.mul(SafeMath.div(lottery[_lotteryID].liquidity, uint(100)), memberLiquidityPercent);\n\n        IERC20 collateral = IERC20(lottery[_lotteryID].collateral);\n\n        // Send collateral to member\n        require(collateral.approve(msg.sender, redeemableLiquidity));\n        require(collateral.transferFrom(address(this), msg.sender, redeemableLiquidity));\n\n        // Set liquidity balance for member\n        liquidityBalances[_lotteryID][memberID] = 0;\n\n        // Decrease lottery liquidity value\n        lottery[_lotteryID].liquidity = SafeMath.sub(\n            lottery[_lotteryID].liquidity,\n            SafeMath.mul(SafeMath.div(lottery[_lotteryID].liquidity, uint(100)),  memberLiquidityPercent)\n        );\n\n        emit Redeem(msg.sender, _lotteryID, redeemableLiquidity, block.timestamp);\n\n        // Pause lottery in case there is no liquidity left\n        if(lottery[_lotteryID].liquidity == 0) {\n            lottery[_lotteryID].status = Status.NoLiquidity;\n        }\n\n        // Change status to Closed if lottery finalization time arrived\n        checkLotteryDuration(_lotteryID);\n    }\n\n    function getMemberID() internal returns (uint) {\n        if (member[msg.sender] == 0) {\n            member[msg.sender] = currentMemberID;\n            currentMemberID++;\n        }\n        return member[msg.sender];\n    }\n\n    //TODO: Different math formulas\n    function determineGameResult(uint _lotteryID) internal pure returns (bool) {\n        // lottery[_lotteryID].formula\n        return false;\n    }\n\n    // Check if lottery finalization time arrived\n    function checkLotteryDuration(uint _lotteryID) internal returns (bool) {\n        if(lottery[_lotteryID].duration == 0){ return true;}\n        if(SafeMath.add(\n                lottery[_lotteryID].created,\n                lottery[_lotteryID].duration\n            ) < block.timestamp){ return true;}\n\n        // Change status to Closed if lottery finalization time arrived\n        lottery[_lotteryID].status = Status.Closed;\n        return false;\n    }\n\n    // Edit allowed collateral tokens list\n    function setCollateral(\n        address _collateral,\n        bool _value\n    ) public onlyOwner {\n        collateralList[_collateral] = _value;\n    }\n\n    // View member liquidity balance\n    // Returns initial liquidity, redeemable liquidity\n    function viewLiquidity(\n        uint _lotteryID,\n        address _member\n    ) public view returns (uint, uint) {\n        require(lottery[_lotteryID].exist, \"Lottery doesn't exist\");\n        require(member[_member] > 0, \"Member doesn't exist\");\n\n        require(liquidityBalances[_lotteryID][member[_member]] > 0, \"Member didn't provide liquidity or redeemed it\");\n\n        // Determine how much this member invested % from total liquidity pool\n        uint memberLiquidityPercent = SafeMath.mul(SafeMath.div(liquidityBalances[_lotteryID][member[_member]], lottery[_lotteryID].liquidity), uint(100));\n\n        // Determine how much this member can redeem\n        uint redeemableLiquidity = SafeMath.mul(SafeMath.div(lottery[_lotteryID].liquidity, uint(100)), memberLiquidityPercent);\n\n        return (liquidityBalances[_lotteryID][member[_member]], redeemableLiquidity);\n    }\n}",
  "sourcePath": "/Users/ianidi/Desktop/work/lottery/contracts/Lottery.sol",
  "compiler": {
    "name": "solc",
    "version": "0.8.0+commit.c7dfd78e.Emscripten.clang"
  },
  "schemaVersion": "3.3.4",
  "updatedAt": "2021-05-05T06:13:49.145Z",
  "devdoc": {
    "kind": "dev",
    "methods": {
      "owner()": {
        "details": "Returns the address of the current owner."
      },
      "renounceOwnership()": {
        "details": "Leaves the contract without owner. It will not be possible to call `onlyOwner` functions anymore. Can only be called by the current owner. NOTE: Renouncing ownership will leave the contract without an owner, thereby removing any functionality that is only available to the owner."
      },
      "transferOwnership(address)": {
        "details": "Transfers ownership of the contract to a new account (`newOwner`). Can only be called by the current owner."
      }
    },
    "version": 1
  },
  "userdoc": {
    "kind": "user",
    "methods": {},
    "version": 1
  }
}