{
  "contractName": "Lottery",
  "abi": [
    {
      "inputs": [],
      "stateMutability": "nonpayable",
      "type": "constructor"
    },
    {
      "anonymous": false,
      "inputs": [
        {
          "indexed": true,
          "internalType": "address",
          "name": "member",
          "type": "address"
        },
        {
          "indexed": true,
          "internalType": "uint256",
          "name": "lotteryID",
          "type": "uint256"
        },
        {
          "indexed": false,
          "internalType": "uint256",
          "name": "amount",
          "type": "uint256"
        },
        {
          "indexed": false,
          "internalType": "uint256",
          "name": "_time",
          "type": "uint256"
        }
      ],
      "name": "Create",
      "type": "event"
    },
    {
      "anonymous": false,
      "inputs": [
        {
          "indexed": true,
          "internalType": "address",
          "name": "member",
          "type": "address"
        },
        {
          "indexed": true,
          "internalType": "uint256",
          "name": "lotteryID",
          "type": "uint256"
        },
        {
          "indexed": false,
          "internalType": "uint256",
          "name": "amount",
          "type": "uint256"
        },
        {
          "indexed": false,
          "internalType": "uint256",
          "name": "_time",
          "type": "uint256"
        }
      ],
      "name": "Deposit",
      "type": "event"
    },
    {
      "anonymous": false,
      "inputs": [
        {
          "indexed": true,
          "internalType": "address",
          "name": "previousOwner",
          "type": "address"
        },
        {
          "indexed": true,
          "internalType": "address",
          "name": "newOwner",
          "type": "address"
        }
      ],
      "name": "OwnershipTransferred",
      "type": "event"
    },
    {
      "anonymous": false,
      "inputs": [
        {
          "indexed": true,
          "internalType": "address",
          "name": "member",
          "type": "address"
        },
        {
          "indexed": true,
          "internalType": "uint256",
          "name": "lotteryID",
          "type": "uint256"
        },
        {
          "indexed": false,
          "internalType": "uint256",
          "name": "betAmount",
          "type": "uint256"
        },
        {
          "indexed": false,
          "internalType": "bool",
          "name": "gameResult",
          "type": "bool"
        },
        {
          "indexed": false,
          "internalType": "uint256",
          "name": "_time",
          "type": "uint256"
        }
      ],
      "name": "Play",
      "type": "event"
    },
    {
      "anonymous": false,
      "inputs": [
        {
          "indexed": true,
          "internalType": "address",
          "name": "member",
          "type": "address"
        },
        {
          "indexed": true,
          "internalType": "uint256",
          "name": "lotteryID",
          "type": "uint256"
        },
        {
          "indexed": false,
          "internalType": "uint256",
          "name": "amount",
          "type": "uint256"
        },
        {
          "indexed": false,
          "internalType": "uint256",
          "name": "_time",
          "type": "uint256"
        }
      ],
      "name": "Redeem",
      "type": "event"
    },
    {
      "inputs": [],
      "name": "currentLotteryID",
      "outputs": [
        {
          "internalType": "uint256",
          "name": "",
          "type": "uint256"
        }
      ],
      "stateMutability": "view",
      "type": "function"
    },
    {
      "inputs": [],
      "name": "currentMemberID",
      "outputs": [
        {
          "internalType": "uint256",
          "name": "",
          "type": "uint256"
        }
      ],
      "stateMutability": "view",
      "type": "function"
    },
    {
      "inputs": [
        {
          "internalType": "uint256",
          "name": "",
          "type": "uint256"
        },
        {
          "internalType": "uint256",
          "name": "",
          "type": "uint256"
        }
      ],
      "name": "liquidityBalances",
      "outputs": [
        {
          "internalType": "uint256",
          "name": "",
          "type": "uint256"
        }
      ],
      "stateMutability": "view",
      "type": "function"
    },
    {
      "inputs": [
        {
          "internalType": "uint256",
          "name": "",
          "type": "uint256"
        }
      ],
      "name": "lottery",
      "outputs": [
        {
          "internalType": "bool",
          "name": "exist",
          "type": "bool"
        },
        {
          "internalType": "enum Lottery.Status",
          "name": "status",
          "type": "uint8"
        },
        {
          "internalType": "uint256",
          "name": "lotteryID",
          "type": "uint256"
        },
        {
          "internalType": "uint256",
          "name": "liquidity",
          "type": "uint256"
        },
        {
          "internalType": "uint256",
          "name": "maxBetPercent",
          "type": "uint256"
        },
        {
          "internalType": "uint256",
          "name": "created",
          "type": "uint256"
        },
        {
          "internalType": "uint256",
          "name": "duration",
          "type": "uint256"
        },
        {
          "internalType": "address",
          "name": "collateral",
          "type": "address"
        }
      ],
      "stateMutability": "view",
      "type": "function"
    },
    {
      "inputs": [
        {
          "internalType": "address",
          "name": "",
          "type": "address"
        }
      ],
      "name": "member",
      "outputs": [
        {
          "internalType": "uint256",
          "name": "",
          "type": "uint256"
        }
      ],
      "stateMutability": "view",
      "type": "function"
    },
    {
      "inputs": [],
      "name": "owner",
      "outputs": [
        {
          "internalType": "address",
          "name": "",
          "type": "address"
        }
      ],
      "stateMutability": "view",
      "type": "function"
    },
    {
      "inputs": [],
      "name": "renounceOwnership",
      "outputs": [],
      "stateMutability": "nonpayable",
      "type": "function"
    },
    {
      "inputs": [
        {
          "internalType": "address",
          "name": "newOwner",
          "type": "address"
        }
      ],
      "name": "transferOwnership",
      "outputs": [],
      "stateMutability": "nonpayable",
      "type": "function"
    },
    {
      "inputs": [
        {
          "internalType": "address",
          "name": "_collateral",
          "type": "address"
        },
        {
          "internalType": "uint256",
          "name": "_liquidityAmount",
          "type": "uint256"
        },
        {
          "internalType": "uint256",
          "name": "_maxBetPercent",
          "type": "uint256"
        },
        {
          "internalType": "uint256",
          "name": "_duration",
          "type": "uint256"
        }
      ],
      "name": "create",
      "outputs": [],
      "stateMutability": "nonpayable",
      "type": "function"
    },
    {
      "inputs": [
        {
          "internalType": "uint256",
          "name": "_lotteryID",
          "type": "uint256"
        },
        {
          "internalType": "uint256",
          "name": "_betAmount",
          "type": "uint256"
        }
      ],
      "name": "play",
      "outputs": [],
      "stateMutability": "nonpayable",
      "type": "function"
    },
    {
      "inputs": [
        {
          "internalType": "uint256",
          "name": "_lotteryID",
          "type": "uint256"
        },
        {
          "internalType": "uint256",
          "name": "_liquidityAmount",
          "type": "uint256"
        }
      ],
      "name": "addLiquidity",
      "outputs": [],
      "stateMutability": "nonpayable",
      "type": "function"
    },
    {
      "inputs": [
        {
          "internalType": "uint256",
          "name": "_lotteryID",
          "type": "uint256"
        }
      ],
      "name": "redeem",
      "outputs": [],
      "stateMutability": "nonpayable",
      "type": "function"
    },
    {
      "inputs": [
        {
          "internalType": "uint256",
          "name": "_lotteryID",
          "type": "uint256"
        },
        {
          "internalType": "address",
          "name": "_member",
          "type": "address"
        }
      ],
      "name": "viewLiquidity",
      "outputs": [
        {
          "internalType": "uint256",
          "name": "",
          "type": "uint256"
        },
        {
          "internalType": "uint256",
          "name": "",
          "type": "uint256"
        }
      ],
      "stateMutability": "view",
      "type": "function"
    }
  ],
  "bytecode": "0x60806040526001600455600160055534801561001a57600080fd5b50600061002e64010000000061007d810204565b60008054600160a060020a031916600160a060020a0383169081178255604051929350917f8be0079c531659141344cd1fd0a4f28419497f9722a3daafe3b4186f6b6457e0908290a350610081565b3390565b61181b806100906000396000f3fe608060405234801561001057600080fd5b50600436106100ec576000357c0100000000000000000000000000000000000000000000000000000000900480638da5cb5b116100a9578063a57d156011610083578063a57d1560146101a3578063db006a75146101ca578063e7d4539e146101dd578063f2fde38b146101f0576100ec565b80638da5cb5b146101735780638eb80ff3146101885780639cd441da14610190576100ec565b806338b014ca146100f15780635eeb1a5c1461010f578063611d026314610122578063715018a6146101435780637bc49a951461014d5780638c71ec1614610160575b600080fd5b6100f9610203565b6040516101069190611713565b60405180910390f35b6100f961011d36600461127a565b610209565b61013561013036600461124f565b610226565b604051610106929190611732565b61014b61039b565b005b61014b61015b36600461127a565b610434565b61014b61016e3660046111df565b610769565b61017b610a11565b604051610106919061129b565b6100f9610a20565b61014b61019e36600461127a565b610a26565b6101b66101b1366004611237565b610c86565b6040516101069897969594939291906112ec565b61014b6101d8366004611237565b610cd1565b6100f96101eb3660046111c5565b610fc6565b61014b6101fe3660046111c5565b610fd8565b60045481565b600360209081526000928352604080842090915290825290205481565b600082815260016020526040812054819060ff166102625760405160e560020a62461bcd02815260040161025990611594565b60405180910390fd5b600160a060020a03831660009081526002602052604090205461029a5760405160e560020a62461bcd028152600401610259906115cb565b6000848152600360209081526040808320600160a060020a0387168452600283528184205484529091529020546102e65760405160e560020a62461bcd0281526004016102599061147d565b6000848152600360209081526040808320600160a060020a0387168452600280845282852054855290835281842054888552600190935290832001546103369161032f916110ab565b60646110be565b600086815260016020526040812060020154919250906103619061035b9060646110ab565b836110be565b6000878152600360209081526040808320600160a060020a038a168452600283528184205484529091529020549450925050509250929050565b6103a36110ca565b600160a060020a03166103b4610a11565b600160a060020a0316146103dd5760405160e560020a62461bcd02815260040161025990611639565b60008054604051600160a060020a03909116907f8be0079c531659141344cd1fd0a4f28419497f9722a3daafe3b4186f6b6457e0908390a36000805473ffffffffffffffffffffffffffffffffffffffff19169055565b60008281526001602052604090205460ff166104655760405160e560020a62461bcd02815260040161025990611594565b60008083815260016020526040902054610100900460ff16600281111561049f5760e060020a634e487b7102600052602160045260246000fd5b146104bf5760405160e560020a62461bcd028152600401610259906116a5565b600081116104e25760405160e560020a62461bcd0281526004016102599061166e565b6104eb826110ce565b61050a5760405160e560020a62461bcd028152600401610259906116dc565b600082815260016020526040902060038101546002909101546105329061032f9084906110ab565b11156105535760405160e560020a62461bcd02815260040161025990611511565b6000828152600160205260409081902060060154905160e060020a6323b872dd028152600160a060020a039091169081906323b872dd9061059c903390309087906004016112af565b602060405180830381600087803b1580156105b657600080fd5b505af11580156105ca573d6000803e3d6000fd5b505050506040513d601f19601f820116820180604052508101906105ee9190611217565b6105f757600080fd5b600061060284611140565b905080156106ee5781600160a060020a03166323b872dd33306106268760026110be565b6040518463ffffffff167c0100000000000000000000000000000000000000000000000000000000028152600401610660939291906112af565b602060405180830381600087803b15801561067a57600080fd5b505af115801561068e573d6000803e3d6000fd5b505050506040513d601f19601f820116820180604052508101906106b29190611217565b6106bb57600080fd5b6000848152600160205260409020600201546106d79084611146565b60008581526001602052604090206002015561071d565b60008481526001602052604090206002015461070a9084611152565b6000858152600160205260409020600201555b8333600160a060020a03167f198848f6428a658420e44522c06ead6b3c3d1ee31056ba9c74fe1baf385a5e4085844260405161075b9392919061171c565b60405180910390a350505050565b6000831161078c5760405160e560020a62461bcd02815260040161025990611602565b8015806107a9575061025881101580156107a957506301e1338081105b6107c85760405160e560020a62461bcd0281526004016102599061140f565b600182101580156107da575060328211155b6107f95760405160e560020a62461bcd028152600401610259906114da565b600061080361115e565b60405160e060020a6323b872dd0281529091508590600160a060020a038216906323b872dd9061083b90339030908a906004016112af565b602060405180830381600087803b15801561085557600080fd5b505af1158015610869573d6000803e3d6000fd5b505050506040513d601f19601f8201168201806040525081019061088d9190611217565b61089657600080fd5b60048054600090815260036020908152604080832086845282528083208990558051610100808201835260018083528285018681529654838501819052606084018d9052608084018c90524260a085015260c084018b9052600160a060020a038e1660e0850152865290935292208251815460ff1916901515178082559351929384939192839161ff001916908360028111156109465760e060020a634e487b7102600052602160045260246000fd5b021790555060408201518160010155606082015181600201556080820151816003015560a0820151816004015560c0820151816005015560e08201518160060160006101000a815481600160a060020a030219169083600160a060020a0316021790555090505060045433600160a060020a03167fe3a07e2ac405f9c908f600ba464ed28dd28f04e308ccc0610a33ca7ed1c59abb88426040516109eb929190611732565b60405180910390a360048054906000610a03836117b1565b919050555050505050505050565b600054600160a060020a031690565b60055481565b60008281526001602052604090205460ff16610a575760405160e560020a62461bcd02815260040161025990611594565b6001600083815260016020526040902054610100900460ff166002811115610a925760e060020a634e487b7102600052602160045260246000fd5b141580610aa35750610aa3826110ce565b610ac25760405160e560020a62461bcd028152600401610259906116dc565b60008111610ae55760405160e560020a62461bcd02815260040161025990611446565b6000610aef61115e565b6000848152600160205260409081902060060154905160e060020a6323b872dd028152919250600160a060020a03169081906323b872dd90610b39903390309088906004016112af565b602060405180830381600087803b158015610b5357600080fd5b505af1158015610b67573d6000803e3d6000fd5b505050506040513d601f19601f82011682018060405250810190610b8b9190611217565b610b9457600080fd5b6000848152600360209081526040808320858452909152902054610bb89084611152565b6000858152600360209081526040808320868452825280832093909355868252600190522060020154610beb9084611152565b600085815260016020526040902060028082019290925554610100900460ff1681811115610c2c5760e060020a634e487b7102600052602160045260246000fd5b1415610c4a576000848152600160205260409020805461ff00191690555b8333600160a060020a03167f36af321ec8d3c75236829c5317affd40ddb308863a1236d2d277a4025cccee1e854260405161075b929190611732565b6001602081905260009182526040909120805491810154600282015460038301546004840154600585015460069095015460ff808816976101009004169590600160a060020a031688565b60008181526001602052604090205460ff16610d025760405160e560020a62461bcd02815260040161025990611594565b6000610d0c61115e565b6000838152600360209081526040808320848452909152902054909150610d485760405160e560020a62461bcd02815260040161025990611355565b60008281526003602090815260408083208484528252808320548584526001909252822060020154610d7d9161032f916110ab565b60008481526001602052604081206002015491925090610da29061035b9060646110ab565b600085815260016020526040908190206006015490517f095ea7b3000000000000000000000000000000000000000000000000000000008152919250600160a060020a031690819063095ea7b390610e0090339086906004016112d3565b602060405180830381600087803b158015610e1a57600080fd5b505af1158015610e2e573d6000803e3d6000fd5b505050506040513d601f19601f82011682018060405250810190610e529190611217565b610e5b57600080fd5b60405160e060020a6323b872dd028152600160a060020a038216906323b872dd90610e8e903090339087906004016112af565b602060405180830381600087803b158015610ea857600080fd5b505af1158015610ebc573d6000803e3d6000fd5b505050506040513d601f19601f82011682018060405250810190610ee09190611217565b610ee957600080fd5b600085815260036020908152604080832087845282528083208390558783526001909152902060020154610f3090610f2b610f258260646110ab565b866110be565b611146565b600086815260016020526040908190206002019190915551859033907fbd5034ffbd47e4e72a94baa2cdb74c6fad73cb3bcdc13036b72ec8306f5a764690610f7b9086904290611732565b60405180910390a3600085815260016020526040902060020154610fb5576000858152600160205260409020805461ff0019166102001790555b610fbe856110ce565b505050505050565b60026020526000908152604090205481565b610fe06110ca565b600160a060020a0316610ff1610a11565b600160a060020a03161461101a5760405160e560020a62461bcd02815260040161025990611639565b600160a060020a0381166110435760405160e560020a62461bcd028152600401610259906113b2565b60008054604051600160a060020a03808516939216917f8be0079c531659141344cd1fd0a4f28419497f9722a3daafe3b4186f6b6457e091a36000805473ffffffffffffffffffffffffffffffffffffffff1916600160a060020a0392909216919091179055565b60006110b78284611758565b9392505050565b60006110b7828461177b565b3390565b6000818152600160205260408120600501546110ec5750600161113b565b60008281526001602052604090206004810154600590910154429161111091611152565b101561111e5750600161113b565b506000818152600160205260408120805461ff0019166101001790555b919050565b50600090565b60006110b7828461179a565b60006110b78284611740565b3360009081526002602052604081205461119a5760058054336000908152600260205260408120829055909190611194836117b1565b91905055505b503360009081526002602052604090205490565b8035600160a060020a038116811461113b57600080fd5b6000602082840312156111d6578081fd5b6110b7826111ae565b600080600080608085870312156111f4578283fd5b6111fd856111ae565b966020860135965060408601359560600135945092505050565b600060208284031215611228578081fd5b815180151581146110b7578182fd5b600060208284031215611248578081fd5b5035919050565b60008060408385031215611261578182fd5b82359150611271602084016111ae565b90509250929050565b6000806040838503121561128c578182fd5b50508035926020909101359150565b600160a060020a0391909116815260200190565b600160a060020a039384168152919092166020820152604081019190915260600190565b600160a060020a03929092168252602082015260400190565b88151581526101008101600389106113175760e060020a634e487b7102600052602160045260246000fd5b602082019890985260408101969096526060860194909452608085019290925260a084015260c0830152600160a060020a031660e090910152919050565b60208082526033908201527f596f75206469646e27742070726f76696465206c6971756964697479206f722060408201527f616c72656164792072656465656d656420697400000000000000000000000000606082015260800190565b60208082526026908201527f4f776e61626c653a206e6577206f776e657220697320746865207a65726f206160408201527f6464726573730000000000000000000000000000000000000000000000000000606082015260800190565b60208082526010908201527f496e76616c6964206475726174696f6e00000000000000000000000000000000604082015260600190565b6020808252600e908201527f496e76616c696420616d6f756e74000000000000000000000000000000000000604082015260600190565b6020808252602e908201527f4d656d626572206469646e27742070726f76696465206c69717569646974792060408201527f6f722072656465656d6564206974000000000000000000000000000000000000606082015260800190565b60208082526017908201527f496e76616c6964206d6178206265742070657263656e74000000000000000000604082015260600190565b60208082526048908201527f42657420616d6f756e74202520696e2072656c6174696f6e20746f20706f6f6c60408201527f2073697a652069732067726561746572207468616e20706f6f6c206d6178426560608201527f7450657263656e74000000000000000000000000000000000000000000000000608082015260a00190565b60208082526015908201527f4c6f747465727920646f65736e27742065786973740000000000000000000000604082015260600190565b60208082526014908201527f4d656d62657220646f65736e2774206578697374000000000000000000000000604082015260600190565b60208082526018908201527f496e76616c6964206c697175696469747920616d6f756e740000000000000000604082015260600190565b6020808252818101527f4f776e61626c653a2063616c6c6572206973206e6f7420746865206f776e6572604082015260600190565b60208082526012908201527f496e76616c69642062657420616d6f756e740000000000000000000000000000604082015260600190565b60208082526016908201527f4c6f7474657279206973206e6f742072756e6e696e6700000000000000000000604082015260600190565b60208082526011908201527f4c6f74746572792068617320656e646564000000000000000000000000000000604082015260600190565b90815260200190565b9283529015156020830152604082015260600190565b918252602082015260400190565b60008219821115611753576117536117cc565b500190565b6000826117765760e060020a634e487b710281526012600452602481fd5b500490565b6000816000190483118215151615611795576117956117cc565b500290565b6000828210156117ac576117ac6117cc565b500390565b60006000198214156117c5576117c56117cc565b5060010190565b60e060020a634e487b7102600052601160045260246000fdfea2646970667358221220396cd056cf2fca94977506b7d7453c84b755b00f3f5b2b327d2bfcd27b1f1bc964736f6c63430008000033",
  "immutableReferences": {},
  "source": "// SPDX-License-Identifier: MIT\npragma solidity 0.8.0;\n\nimport {IERC20} from \"@openzeppelin/contracts/token/ERC20/IERC20.sol\";\nimport \"@openzeppelin/contracts/utils/math/SafeMath.sol\";\nimport \"@openzeppelin/contracts/access/Ownable.sol\";\n\ncontract Lottery is Ownable {\n    event Create(address indexed member, uint indexed lotteryID, uint amount, uint _time);\n    event Deposit(address indexed member, uint indexed lotteryID, uint amount, uint _time);\n    event Redeem(address indexed member, uint indexed lotteryID, uint amount, uint _time);\n    event Play(address indexed member, uint indexed lotteryID, uint betAmount, bool gameResult, uint _time);\n\n    enum Status {Active, Closed, NoLiquidity}\n\n    struct LotteryStruct {\n        bool exist;\n        Status status;\n        uint lotteryID;\n        uint liquidity;\n        uint maxBetPercent;\n        uint created;\n        uint duration;\n        address collateral;\n    }\n\n    mapping(uint => LotteryStruct) public lottery;\n\n    // Wallet (msg.sender) => MemberID\n    mapping(address => uint) public member;\n\n    // LotteryID => (MemberID => liquidity balance)\n    mapping(uint => mapping(uint => uint)) public liquidityBalances;\n\n    // Tokens allowed to be used as collateral\n    // mapping(address => bool) public collateralList;\n\n    uint public currentLotteryID = 1;\n    uint public currentMemberID = 1;\n\n    constructor() { }\n    \n    // Create a new lottery\n    function create(address _collateral, uint _liquidityAmount, uint _maxBetPercent, uint _duration) external {\n        require(_liquidityAmount > 0, \"Invalid liquidity amount\");\n        // require(collateralList[_collateral] != false, \"Invalid collateral\");\n        require(_duration == 0 || (_duration >= 600 seconds && _duration < 365 days), \"Invalid duration\");\n        require(_maxBetPercent >= 1 && _maxBetPercent <= 50, \"Invalid max bet percent\");\n\n        uint memberID = getMemberID();\n\n        IERC20 collateral = IERC20(_collateral);\n\n        // Deposit collateral\n        require(collateral.transferFrom(msg.sender, address(this), _liquidityAmount));\n\n        // Set liquidity balance for member\n        liquidityBalances[currentLotteryID][memberID] = _liquidityAmount;\n\n        LotteryStruct memory lotteryStruct =\n            LotteryStruct({\n                exist: true,\n                status: Status.Active,\n                lotteryID: currentLotteryID,\n                liquidity: _liquidityAmount,\n                maxBetPercent: _maxBetPercent,\n                created: block.timestamp,\n                duration: _duration,\n                collateral: _collateral\n            });\n\n        lottery[currentLotteryID] = lotteryStruct;\n\n        emit Create(msg.sender, currentLotteryID, _liquidityAmount, block.timestamp);\n\n        currentLotteryID++;\n    }\n\n    // Play the lottery\n    function play(uint _lotteryID, uint _betAmount) external {\n        require(lottery[_lotteryID].exist, \"Lottery doesn't exist\");\n        require(lottery[_lotteryID].status == Status.Active, \"Lottery is not running\");\n        require(_betAmount > 0, \"Invalid bet amount\");\n        require(checkLotteryDuration(_lotteryID), \"Lottery has ended\");\n\n        require(SafeMath.mul(SafeMath.div(_betAmount, lottery[_lotteryID].liquidity), uint(100)) <= lottery[_lotteryID].maxBetPercent, \"Bet amount % in relation to pool size is greater than pool maxBetPercent\");\n\n        IERC20 collateral = IERC20(lottery[_lotteryID].collateral);\n\n        // Withdraw collateral from member\n        require(collateral.transferFrom(msg.sender, address(this), _betAmount));\n\n        bool winner = determineGameResult(_lotteryID);\n\n        if (winner) {\n            // If member won the game, send back (withdrawn collateral * 2) to him\n            require(collateral.transferFrom(msg.sender, address(this), SafeMath.mul(_betAmount, uint(2))));\n            \n            // Decrease lottery liquidity value\n            lottery[_lotteryID].liquidity = SafeMath.sub(\n                lottery[_lotteryID].liquidity,\n                _betAmount\n            );\n        } else {\n            // Increase lottery liquidity value\n            lottery[_lotteryID].liquidity = SafeMath.add(\n                lottery[_lotteryID].liquidity,\n                _betAmount\n            );\n        }\n\n        emit Play(msg.sender, _lotteryID, _betAmount, winner, block.timestamp);\n    }\n    \n    // Add liquidity to existing lottery\n    function addLiquidity(uint _lotteryID, uint _liquidityAmount) external {\n        require(lottery[_lotteryID].exist, \"Lottery doesn't exist\");\n        require(lottery[_lotteryID].status != Status.Closed || checkLotteryDuration(_lotteryID), \"Lottery has ended\");\n        require(_liquidityAmount > 0, \"Invalid amount\");\n\n        uint memberID = getMemberID();\n\n        IERC20 collateral = IERC20(lottery[_lotteryID].collateral);\n\n        // Deposit collateral\n        require(collateral.transferFrom(msg.sender, address(this), _liquidityAmount));\n\n        //Increase liquidity balance for member\n        liquidityBalances[_lotteryID][memberID] = SafeMath.add(\n            liquidityBalances[_lotteryID][memberID],\n            _liquidityAmount\n        );\n\n        //Increase lottery liquidity value\n        lottery[_lotteryID].liquidity = SafeMath.add(\n            lottery[_lotteryID].liquidity,\n            _liquidityAmount\n        );\n\n        // Since we added liquidity, set status Active in case lottery was paused because of no liquidity\n        if(lottery[_lotteryID].status == Status.NoLiquidity) {\n            lottery[_lotteryID].status = Status.Active;\n        }\n\n        emit Deposit(msg.sender, _lotteryID, _liquidityAmount, block.timestamp);\n    }\n\n    //TODO: \n    function redeem(uint _lotteryID) external {\n        require(lottery[_lotteryID].exist, \"Lottery doesn't exist\");\n\n        uint memberID = getMemberID();\n\n        require(liquidityBalances[_lotteryID][memberID] > 0, \"You didn't provide liquidity or already redeemed it\");\n\n        // Determine how much member invested % from total liquidity pool\n        uint memberLiquidityPercent = SafeMath.mul(SafeMath.div(liquidityBalances[_lotteryID][memberID], lottery[_lotteryID].liquidity), uint(100));\n\n        // Determine how much member can redeem\n        uint redeemableLiquidity = SafeMath.mul(SafeMath.div(lottery[_lotteryID].liquidity, uint(100)), memberLiquidityPercent);\n\n        IERC20 collateral = IERC20(lottery[_lotteryID].collateral);\n\n        // Send collateral to member\n        require(collateral.approve(msg.sender, redeemableLiquidity));\n        require(collateral.transferFrom(address(this), msg.sender, redeemableLiquidity));\n\n        // Set liquidity balance for member\n        liquidityBalances[_lotteryID][memberID] = 0;\n\n        // Decrease lottery liquidity value\n        lottery[_lotteryID].liquidity = SafeMath.sub(\n            lottery[_lotteryID].liquidity,\n            SafeMath.mul(SafeMath.div(lottery[_lotteryID].liquidity, uint(100)),  memberLiquidityPercent)\n        );\n\n        emit Redeem(msg.sender, _lotteryID, redeemableLiquidity, block.timestamp);\n\n        // Pause lottery in case there is no liquidity left\n        if(lottery[_lotteryID].liquidity == 0) {\n            lottery[_lotteryID].status = Status.NoLiquidity;\n        }\n\n        // Change status to Closed if lottery finalization time arrived\n        checkLotteryDuration(_lotteryID);\n    }\n\n    function getMemberID() internal returns (uint) {\n        if (member[msg.sender] == 0) {\n            member[msg.sender] = currentMemberID;\n            currentMemberID++;\n        }\n        return member[msg.sender];\n    }\n\n    //TODO: Different math formulas\n    function determineGameResult(uint _lotteryID) internal pure returns (bool) {\n        // lottery[_lotteryID].formula\n        return false;\n    }\n\n    // Check if lottery finalization time arrived\n    function checkLotteryDuration(uint _lotteryID) internal returns (bool) {\n        if(lottery[_lotteryID].duration == 0){ return true;}\n        if(SafeMath.add(\n                lottery[_lotteryID].created,\n                lottery[_lotteryID].duration\n            ) < block.timestamp){ return true;}\n\n        // Change status to Closed if lottery finalization time arrived\n        lottery[_lotteryID].status = Status.Closed;\n        return false;\n    }\n\n    // Edit allowed collateral tokens list\n    // function setCollateral(\n    //     address _collateral,\n    //     bool _value\n    // ) public onlyOwner {\n    //     collateralList[_collateral] = _value;\n    // }\n\n    // View member liquidity balance\n    // Returns initial liquidity, redeemable liquidity\n    function viewLiquidity(\n        uint _lotteryID,\n        address _member\n    ) public view returns (uint, uint) {\n        require(lottery[_lotteryID].exist, \"Lottery doesn't exist\");\n        require(member[_member] > 0, \"Member doesn't exist\");\n\n        require(liquidityBalances[_lotteryID][member[_member]] > 0, \"Member didn't provide liquidity or redeemed it\");\n\n        // Determine how much this member invested % from total liquidity pool\n        uint memberLiquidityPercent = SafeMath.mul(SafeMath.div(liquidityBalances[_lotteryID][member[_member]], lottery[_lotteryID].liquidity), uint(100));\n\n        // Determine how much this member can redeem\n        uint redeemableLiquidity = SafeMath.mul(SafeMath.div(lottery[_lotteryID].liquidity, uint(100)), memberLiquidityPercent);\n\n        return (liquidityBalances[_lotteryID][member[_member]], redeemableLiquidity);\n    }\n}",
  "sourcePath": "/Users/ianidi/Desktop/work/lottery/contracts/Lottery.sol",
  "compiler": {
    "name": "solc",
    "version": "0.8.0+commit.c7dfd78e.Emscripten.clang"
  },
  "schemaVersion": "3.3.4",
  "updatedAt": "2021-05-10T00:35:50.033Z",
  "devdoc": {
    "kind": "dev",
    "methods": {
      "owner()": {
        "details": "Returns the address of the current owner."
      },
      "renounceOwnership()": {
        "details": "Leaves the contract without owner. It will not be possible to call `onlyOwner` functions anymore. Can only be called by the current owner. NOTE: Renouncing ownership will leave the contract without an owner, thereby removing any functionality that is only available to the owner."
      },
      "transferOwnership(address)": {
        "details": "Transfers ownership of the contract to a new account (`newOwner`). Can only be called by the current owner."
      }
    },
    "version": 1
  },
  "userdoc": {
    "kind": "user",
    "methods": {},
    "version": 1
  }
}