{
  "contractName": "Lottery",
  "abi": [
    {
      "inputs": [],
      "stateMutability": "nonpayable",
      "type": "constructor"
    },
    {
      "anonymous": false,
      "inputs": [
        {
          "indexed": true,
          "internalType": "uint256",
          "name": "lotteryID",
          "type": "uint256"
        },
        {
          "indexed": false,
          "internalType": "uint256",
          "name": "_time",
          "type": "uint256"
        }
      ],
      "name": "Create",
      "type": "event"
    },
    {
      "anonymous": false,
      "inputs": [
        {
          "indexed": true,
          "internalType": "address",
          "name": "member",
          "type": "address"
        },
        {
          "indexed": true,
          "internalType": "uint256",
          "name": "amount",
          "type": "uint256"
        },
        {
          "indexed": false,
          "internalType": "uint256",
          "name": "_time",
          "type": "uint256"
        }
      ],
      "name": "Deposit",
      "type": "event"
    },
    {
      "anonymous": false,
      "inputs": [
        {
          "indexed": true,
          "internalType": "address",
          "name": "previousOwner",
          "type": "address"
        },
        {
          "indexed": true,
          "internalType": "address",
          "name": "newOwner",
          "type": "address"
        }
      ],
      "name": "OwnershipTransferred",
      "type": "event"
    },
    {
      "anonymous": false,
      "inputs": [
        {
          "indexed": true,
          "internalType": "uint256",
          "name": "lotteryID",
          "type": "uint256"
        },
        {
          "indexed": true,
          "internalType": "address",
          "name": "member",
          "type": "address"
        },
        {
          "indexed": false,
          "internalType": "uint256",
          "name": "betAmount",
          "type": "uint256"
        },
        {
          "indexed": false,
          "internalType": "bool",
          "name": "gameResult",
          "type": "bool"
        },
        {
          "indexed": false,
          "internalType": "uint256",
          "name": "_time",
          "type": "uint256"
        }
      ],
      "name": "Play",
      "type": "event"
    },
    {
      "anonymous": false,
      "inputs": [
        {
          "indexed": true,
          "internalType": "address",
          "name": "member",
          "type": "address"
        },
        {
          "indexed": true,
          "internalType": "uint256",
          "name": "amount",
          "type": "uint256"
        },
        {
          "indexed": false,
          "internalType": "uint256",
          "name": "_time",
          "type": "uint256"
        }
      ],
      "name": "Redeem",
      "type": "event"
    },
    {
      "inputs": [
        {
          "internalType": "address",
          "name": "",
          "type": "address"
        }
      ],
      "name": "collateralList",
      "outputs": [
        {
          "internalType": "bool",
          "name": "",
          "type": "bool"
        }
      ],
      "stateMutability": "view",
      "type": "function"
    },
    {
      "inputs": [
        {
          "internalType": "uint256",
          "name": "",
          "type": "uint256"
        },
        {
          "internalType": "uint256",
          "name": "",
          "type": "uint256"
        }
      ],
      "name": "liquidityBalances",
      "outputs": [
        {
          "internalType": "uint256",
          "name": "",
          "type": "uint256"
        }
      ],
      "stateMutability": "view",
      "type": "function"
    },
    {
      "inputs": [
        {
          "internalType": "uint256",
          "name": "",
          "type": "uint256"
        }
      ],
      "name": "lottery",
      "outputs": [
        {
          "internalType": "bool",
          "name": "exist",
          "type": "bool"
        },
        {
          "internalType": "uint256",
          "name": "lotteryID",
          "type": "uint256"
        },
        {
          "internalType": "uint256",
          "name": "liquidity",
          "type": "uint256"
        },
        {
          "internalType": "uint256",
          "name": "award",
          "type": "uint256"
        },
        {
          "internalType": "uint256",
          "name": "maxBetPercent",
          "type": "uint256"
        },
        {
          "internalType": "address",
          "name": "collateral",
          "type": "address"
        },
        {
          "internalType": "uint256",
          "name": "created",
          "type": "uint256"
        },
        {
          "internalType": "uint256",
          "name": "duration",
          "type": "uint256"
        },
        {
          "internalType": "enum Lottery.Status",
          "name": "status",
          "type": "uint8"
        }
      ],
      "stateMutability": "view",
      "type": "function"
    },
    {
      "inputs": [
        {
          "internalType": "address",
          "name": "",
          "type": "address"
        }
      ],
      "name": "member",
      "outputs": [
        {
          "internalType": "uint256",
          "name": "",
          "type": "uint256"
        }
      ],
      "stateMutability": "view",
      "type": "function"
    },
    {
      "inputs": [],
      "name": "owner",
      "outputs": [
        {
          "internalType": "address",
          "name": "",
          "type": "address"
        }
      ],
      "stateMutability": "view",
      "type": "function"
    },
    {
      "inputs": [],
      "name": "renounceOwnership",
      "outputs": [],
      "stateMutability": "nonpayable",
      "type": "function"
    },
    {
      "inputs": [
        {
          "internalType": "address",
          "name": "newOwner",
          "type": "address"
        }
      ],
      "name": "transferOwnership",
      "outputs": [],
      "stateMutability": "nonpayable",
      "type": "function"
    },
    {
      "inputs": [
        {
          "internalType": "address",
          "name": "_collateral",
          "type": "address"
        },
        {
          "internalType": "uint256",
          "name": "_liquidityAmount",
          "type": "uint256"
        },
        {
          "internalType": "uint256",
          "name": "_maxBetPercent",
          "type": "uint256"
        },
        {
          "internalType": "uint256",
          "name": "_duration",
          "type": "uint256"
        }
      ],
      "name": "create",
      "outputs": [],
      "stateMutability": "nonpayable",
      "type": "function"
    },
    {
      "inputs": [
        {
          "internalType": "uint256",
          "name": "_lotteryID",
          "type": "uint256"
        },
        {
          "internalType": "uint256",
          "name": "_betAmount",
          "type": "uint256"
        }
      ],
      "name": "play",
      "outputs": [],
      "stateMutability": "nonpayable",
      "type": "function"
    },
    {
      "inputs": [
        {
          "internalType": "uint256",
          "name": "_lotteryID",
          "type": "uint256"
        },
        {
          "internalType": "uint256",
          "name": "_liquidityAmount",
          "type": "uint256"
        }
      ],
      "name": "addLiquidity",
      "outputs": [],
      "stateMutability": "nonpayable",
      "type": "function"
    },
    {
      "inputs": [
        {
          "internalType": "uint256",
          "name": "_lotteryID",
          "type": "uint256"
        }
      ],
      "name": "redeem",
      "outputs": [],
      "stateMutability": "nonpayable",
      "type": "function"
    },
    {
      "inputs": [
        {
          "internalType": "address",
          "name": "_collateral",
          "type": "address"
        },
        {
          "internalType": "bool",
          "name": "_value",
          "type": "bool"
        }
      ],
      "name": "setCollateral",
      "outputs": [],
      "stateMutability": "nonpayable",
      "type": "function"
    },
    {
      "inputs": [
        {
          "internalType": "uint256",
          "name": "_lotteryID",
          "type": "uint256"
        },
        {
          "internalType": "address",
          "name": "_member",
          "type": "address"
        }
      ],
      "name": "viewLiquidity",
      "outputs": [
        {
          "internalType": "uint256",
          "name": "",
          "type": "uint256"
        },
        {
          "internalType": "uint256",
          "name": "",
          "type": "uint256"
        }
      ],
      "stateMutability": "view",
      "type": "function"
    }
  ],
  "bytecode": "0x60806040526001600555600160065534801561001a57600080fd5b50600061002e64010000000061007d810204565b60008054600160a060020a031916600160a060020a0383169081178255604051929350917f8be0079c531659141344cd1fd0a4f28419497f9722a3daafe3b4186f6b6457e0908290a350610081565b3390565b611999806100906000396000f3fe608060405234801561001057600080fd5b50600436106100ec576000357c01000000000000000000000000000000000000000000000000000000009004806394d31640116100a9578063b1c9e93811610083578063b1c9e938146101ce578063db006a75146101ee578063e7d4539e14610201578063f2fde38b14610214576100ec565b806394d31640146101805780639cd441da14610193578063a57d1560146101a6576100ec565b80635eeb1a5c146100f1578063611d02631461011a578063715018a61461013b5780637bc49a95146101455780638c71ec16146101585780638da5cb5b1461016b575b600080fd5b6101046100ff3660046113f4565b610227565b6040516101119190611880565b60405180910390f35b61012d6101283660046113c9565b610244565b60405161011192919061189f565b6101436103ce565b005b6101436101533660046113f4565b610467565b61014361016636600461135d565b6107b8565b610173610acc565b6040516101119190611415565b61014361018e366004611327565b610adb565b6101436101a13660046113f4565b610b48565b6101b96101b43660046113b1565b610d56565b60405161011199989796959493929190611471565b6101e16101dc36600461130d565b610db0565b6040516101119190611466565b6101436101fc3660046113b1565b610dc5565b61010461020f36600461130d565b61110d565b61014361022236600461130d565b61111f565b600260209081526000928352604080842090915290825290205481565b600082815260046020526040812054819060ff166102805760405160e560020a62461bcd02815260040161027790611701565b60405180910390fd5b600160a060020a0383166000908152600160205260409020546102b85760405160e560020a62461bcd02815260040161027790611738565b6000848152600260209081526040808320600160a060020a0387168452600183528184205484529091529020546103045760405160e560020a62461bcd028152600401610277906115ea565b6000848152600460205260408120600281015460039091015461032791906111f2565b6000868152600260208181526040808420600160a060020a038a168552600183528185205485528252808420548a85526004909252832090910154929350909161037b9161037491611205565b6064611211565b9050600061039361038d846064611205565b83611211565b6000888152600260209081526040808320600160a060020a038b16845260018352818420548452909152902054955093505050509250929050565b6103d661121d565b600160a060020a03166103e7610acc565b600160a060020a0316146104105760405160e560020a62461bcd028152600401610277906117a6565b60008054604051600160a060020a03909116907f8be0079c531659141344cd1fd0a4f28419497f9722a3daafe3b4186f6b6457e0908390a36000805473ffffffffffffffffffffffffffffffffffffffff19169055565b60008281526004602052604090205460ff166104985760405160e560020a62461bcd02815260040161027790611701565b60008281526004602052604081206008015460ff1660028111156104cf5760e060020a634e487b7102600052602160045260246000fd5b146104ef5760405160e560020a62461bcd02815260040161027790611812565b600081116105125760405160e560020a62461bcd028152600401610277906117db565b61051b82611221565b61053a5760405160e560020a62461bcd02815260040161027790611849565b6000828152600460205260408120600281015460039091015461055d91906111f2565b600084815260046020819052604090912001549091506105806103748484611205565b11156105a15760405160e560020a62461bcd0281526004016102779061167e565b60008381526004602081905260409182902060050154915160e060020a6323b872dd028152600160a060020a039092169182916323b872dd916105ea9133913091899101611429565b602060405180830381600087803b15801561060457600080fd5b505af1158015610618573d6000803e3d6000fd5b505050506040513d601f19601f8201168201806040525081019061063c9190611395565b61064557600080fd5b600061065085611294565b9050801561073c5781600160a060020a03166323b872dd3330610674886002611211565b6040518463ffffffff167c01000000000000000000000000000000000000000000000000000000000281526004016106ae93929190611429565b602060405180830381600087803b1580156106c857600080fd5b505af11580156106dc573d6000803e3d6000fd5b505050506040513d601f19601f820116820180604052508101906107009190611395565b61070957600080fd5b600085815260046020526040902060030154610725908561129a565b60008681526004602052604090206003015561076b565b60008581526004602052604090206003015461075890856111f2565b6000868152600460205260409020600301555b33600160a060020a0316857f09b7ef441a251123b02af0881a7988bf8cebce35977a726e0a33bd842c67b8c78684426040516107a993929190611889565b60405180910390a35050505050565b600083116107db5760405160e560020a62461bcd0281526004016102779061176f565b600160a060020a03841660009081526003602052604090205460ff166108165760405160e560020a62461bcd0281526004016102779061157c565b8015806108335750610258811015801561083357506301e1338081105b6108525760405160e560020a62461bcd02815260040161027790611545565b60018210158015610864575060328211155b6108835760405160e560020a62461bcd02815260040161027790611647565b600061088d6112a6565b60405160e060020a6323b872dd0281529091508590600160a060020a038216906323b872dd906108c590339030908a90600401611429565b602060405180830381600087803b1580156108df57600080fd5b505af11580156108f3573d6000803e3d6000fd5b505050506040513d601f19601f820116820180604052508101906109179190611395565b61092057600080fd5b60058054600090815260026020908152604080832086845282528083208990558051610120810182526001815293549184019190915282018790526060820181905260808201869052600160a060020a03881660a08301524260c083015260e082018590529061010081018281525090508060046000600554815260200190815260200160002060008201518160000160006101000a81548160ff0219169083151502179055506020820151816001015560408201518160020155606082015181600301556080820151816004015560a08201518160050160006101000a815481600160a060020a030219169083600160a060020a0316021790555060c0820151816006015560e082015181600701556101008201518160080160006101000a81548160ff02191690836002811115610a6c5760e060020a634e487b7102600052602160045260246000fd5b02179055509050506005547f42ec2e0bdfc50680a77511c1785be2a2c2bfb3ee1159a2e6de27192eb12ec3b142604051610aa69190611880565b60405180910390a260058054906000610abe8361191e565b919050555050505050505050565b600054600160a060020a031690565b610ae361121d565b600160a060020a0316610af4610acc565b600160a060020a031614610b1d5760405160e560020a62461bcd028152600401610277906117a6565b600160a060020a03919091166000908152600360205260409020805460ff1916911515919091179055565b60008281526004602052604090205460ff16610b795760405160e560020a62461bcd02815260040161027790611701565b60008281526004602052604081206008015460ff166002811115610bb05760e060020a634e487b7102600052602160045260246000fd5b14610bd05760405160e560020a62461bcd02815260040161027790611812565b60008111610bf35760405160e560020a62461bcd028152600401610277906115b3565b610bfc82611221565b610c1b5760405160e560020a62461bcd02815260040161027790611849565b6000610c256112a6565b60008481526004602081905260409182902060050154915160e060020a6323b872dd028152929350600160a060020a039091169182916323b872dd91610c719133913091899101611429565b602060405180830381600087803b158015610c8b57600080fd5b505af1158015610c9f573d6000803e3d6000fd5b505050506040513d601f19601f82011682018060405250810190610cc39190611395565b610ccc57600080fd5b6000848152600260208181526040808420868552825280842087905587845260049091529091200154610cff90846111f2565b600085815260046020526040908190206002019190915551839033907f90890809c654f11d6e72a28fa60149770a0d11ec6c92319d6ceb2bb0a4ea1a1590610d48904290611880565b60405180910390a350505050565b600460208190526000918252604090912080546001820154600283015460038401549484015460058501546006860154600787015460089097015460ff96871698959794969394600160a060020a03909316939192911689565b60036020526000908152604090205460ff1681565b60008181526004602052604090205460ff16610df65760405160e560020a62461bcd02815260040161027790611701565b6000610e006112a6565b6000838152600260209081526040808320848452909152902054909150610e3c5760405160e560020a62461bcd028152600401610277906115ea565b60008281526004602052604081206002810154600390910154610e5f91906111f2565b600084815260026020818152604080842087855282528084205488855260049092528320909101549293509091610e999161037491611205565b90506000610eab61038d846064611205565b6000868152600460208190526040918290206005015491517f095ea7b3000000000000000000000000000000000000000000000000000000008152929350600160a060020a0390911691829163095ea7b391610f0b91339187910161144d565b602060405180830381600087803b158015610f2557600080fd5b505af1158015610f39573d6000803e3d6000fd5b505050506040513d601f19601f82011682018060405250810190610f5d9190611395565b610f6657600080fd5b60405160e060020a6323b872dd028152600160a060020a038216906323b872dd90610f9990309033908790600401611429565b602060405180830381600087803b158015610fb357600080fd5b505af1158015610fc7573d6000803e3d6000fd5b505050506040513d601f19601f82011682018060405250810190610feb9190611395565b610ff457600080fd5b600086815260026020818152604080842089855282528084208490558984526004909152909120015461103a9061103561102f826064611205565b86611211565b61129a565b60008781526004602052604090206002810191909155600301546110669061103561102f826064611205565b600087815260046020526040908190206003019190915551829033907fe5b754fb1abb7f01b499791d0b820ae3b6af3424ac1c59768edb53f4ec31a929906110af904290611880565b60405180910390a3600086815260046020526040902060028101546003909101546110da91906111f2565b6110fb576000868152600460205260409020600801805460ff191660011790555b61110486611221565b50505050505050565b60016020526000908152604090205481565b61112761121d565b600160a060020a0316611138610acc565b600160a060020a0316146111615760405160e560020a62461bcd028152600401610277906117a6565b600160a060020a03811661118a5760405160e560020a62461bcd028152600401610277906114e8565b60008054604051600160a060020a03808516939216917f8be0079c531659141344cd1fd0a4f28419497f9722a3daafe3b4186f6b6457e091a36000805473ffffffffffffffffffffffffffffffffffffffff1916600160a060020a0392909216919091179055565b60006111fe82846118ad565b9392505050565b60006111fe82846118c5565b60006111fe82846118e8565b3390565b60008181526004602052604081206007015461123f5750600161128f565b600082815260046020526040902060068101546007909101544291611263916111f2565b10156112715750600161128f565b506000818152600460205260408120600801805460ff191660021790555b919050565b50600090565b60006111fe8284611907565b336000908152600160205260408120546112e257600680543360009081526001602052604081208290559091906112dc8361191e565b91905055505b503360009081526001602052604090205490565b8035600160a060020a038116811461128f57600080fd5b60006020828403121561131e578081fd5b6111fe826112f6565b60008060408385031215611339578081fd5b611342836112f6565b9150602083013561135281611952565b809150509250929050565b60008060008060808587031215611372578182fd5b61137b856112f6565b966020860135965060408601359560600135945092505050565b6000602082840312156113a6578081fd5b81516111fe81611952565b6000602082840312156113c2578081fd5b5035919050565b600080604083850312156113db578182fd5b823591506113eb602084016112f6565b90509250929050565b60008060408385031215611406578182fd5b50508035926020909101359150565b600160a060020a0391909116815260200190565b600160a060020a039384168152919092166020820152604081019190915260600190565b600160a060020a03929092168252602082015260400190565b901515815260200190565b6000610120820190508a15158252896020830152886040830152876060830152866080830152600160a060020a03861660a08301528460c08301528360e0830152600383106114d35760e060020a634e487b7102600052602160045260246000fd5b826101008301529a9950505050505050505050565b60208082526026908201527f4f776e61626c653a206e6577206f776e657220697320746865207a65726f206160408201527f6464726573730000000000000000000000000000000000000000000000000000606082015260800190565b60208082526010908201527f496e76616c6964206475726174696f6e00000000000000000000000000000000604082015260600190565b60208082526012908201527f496e76616c696420636f6c6c61746572616c0000000000000000000000000000604082015260600190565b6020808252600e908201527f496e76616c696420616d6f756e74000000000000000000000000000000000000604082015260600190565b6020808252602e908201527f4d656d626572206469646e27742070726f76696465206c69717569646974792060408201527f6f722072656465656d6564206974000000000000000000000000000000000000606082015260800190565b60208082526017908201527f496e76616c6964206d6178206265742070657263656e74000000000000000000604082015260600190565b60208082526048908201527f42657420616d6f756e74202520696e2072656c6174696f6e20746f20706f6f6c60408201527f2073697a652069732067726561746572207468616e20706f6f6c206d6178426560608201527f7450657263656e74000000000000000000000000000000000000000000000000608082015260a00190565b60208082526015908201527f4c6f747465727920646f65736e27742065786973740000000000000000000000604082015260600190565b60208082526014908201527f4d656d62657220646f65736e2774206578697374000000000000000000000000604082015260600190565b60208082526018908201527f496e76616c6964206c697175696469747920616d6f756e740000000000000000604082015260600190565b6020808252818101527f4f776e61626c653a2063616c6c6572206973206e6f7420746865206f776e6572604082015260600190565b60208082526012908201527f496e76616c69642062657420616d6f756e740000000000000000000000000000604082015260600190565b60208082526016908201527f4c6f7474657279206973206e6f742072756e6e696e6700000000000000000000604082015260600190565b60208082526010908201527f4c6f747465727920697320656e64656400000000000000000000000000000000604082015260600190565b90815260200190565b9283529015156020830152604082015260600190565b918252602082015260400190565b600082198211156118c0576118c0611939565b500190565b6000826118e35760e060020a634e487b710281526012600452602481fd5b500490565b600081600019048311821515161561190257611902611939565b500290565b60008282101561191957611919611939565b500390565b600060001982141561193257611932611939565b5060010190565b60e060020a634e487b7102600052601160045260246000fd5b801515811461196057600080fd5b5056fea2646970667358221220805c7fcbfe565e043167b708ce59ee26b447fe6ca4b7d54e80a743d7a5abe29564736f6c63430008000033",
  "immutableReferences": {},
  "source": "// SPDX-License-Identifier: MIT\npragma solidity 0.8.0;\n\nimport {IERC20} from \"@openzeppelin/contracts/token/ERC20/IERC20.sol\";\nimport \"@openzeppelin/contracts/utils/math/SafeMath.sol\";\nimport \"@openzeppelin/contracts/access/Ownable.sol\";\n\ncontract Lottery is Ownable {\n    event Create(uint indexed lotteryID, uint _time);\n    event Deposit(address indexed member, uint indexed amount, uint _time);\n    event Redeem(address indexed member, uint indexed amount, uint _time);\n    event Play(uint indexed lotteryID, address indexed member, uint betAmount, bool gameResult, uint _time);\n\n    enum Status {Running, Paused, Closed}\n\n    // Member ID by wallet\n    mapping(address => uint) public member;\n\n    // Each member's liquidity balance per lottery\n    mapping(uint => mapping(uint => uint)) public liquidityBalances;\n\n    mapping(address => bool) public collateralList;\n\n    struct LotteryStruct {\n        bool exist;\n        uint lotteryID;\n        uint liquidity;\n        uint award;\n        uint maxBetPercent;\n        address collateral;\n        uint created;\n        uint duration;\n        Status status;\n    }\n\n    mapping(uint => LotteryStruct) public lottery;\n\n    uint internal currentLotteryID = 1;\n    uint internal currentMemberID = 1;\n\n    constructor() {\n        \n    }\n    \n    function create(address _collateral, uint _liquidityAmount, uint _maxBetPercent, uint _duration) external {\n        require(_liquidityAmount > 0, \"Invalid liquidity amount\");\n        require(collateralList[_collateral] != false, \"Invalid collateral\");\n        require(_duration == 0 || (_duration >= 600 seconds && _duration < 365 days), \"Invalid duration\");\n        require(_maxBetPercent >= 1 && _maxBetPercent <= 50, \"Invalid max bet percent\");\n\n        uint memberID = getMemberID();\n\n        IERC20 collateral = IERC20(_collateral);\n\n        //Deposit collateral\n        require(collateral.transferFrom(msg.sender, address(this), uint(_liquidityAmount)));\n\n        //Set liquidity balance for current member\n        liquidityBalances[currentLotteryID][memberID] = _liquidityAmount;\n\n        LotteryStruct memory lotteryStruct =\n            LotteryStruct({\n                exist: true,\n                status: Status.Running,\n                lotteryID: currentLotteryID,\n                liquidity: _liquidityAmount,\n                award: 0,\n                maxBetPercent: _maxBetPercent,\n                created: block.timestamp,\n                duration: _duration,\n                collateral: _collateral\n            });\n\n        lottery[currentLotteryID] = lotteryStruct;\n\n        emit Create(currentLotteryID, block.timestamp);\n\n        currentLotteryID++;\n    }\n\n    function getMemberID() internal returns (uint) {\n        if (member[msg.sender] == 0) {\n            member[msg.sender] = currentMemberID;\n            currentMemberID++;\n        }\n\n        return member[msg.sender];\n    }\n\n    //TODO: math formula play functions / different formulas\n    function determineGameResult(uint _lotteryID) internal pure returns (bool) {\n        // lottery[_lotteryID].formula\n        return false;\n    }\n\n    //check if the lottery finalization time and change its status to closed\n    function checkLotteryTimeNotEnd(uint _lotteryID) internal returns (bool) {\n        if(lottery[_lotteryID].duration == 0){ return true;}\n        if(SafeMath.add(\n                lottery[_lotteryID].created,\n                lottery[_lotteryID].duration\n            ) < block.timestamp){ return true;}\n\n        lottery[_lotteryID].status = Status.Closed;\n        return false;\n    }\n\n    // play\n    function play(uint _lotteryID, uint _betAmount) external {\n        require(lottery[_lotteryID].exist, \"Lottery doesn't exist\");\n        require(lottery[_lotteryID].status == Status.Running, \"Lottery is not running\");\n        require(_betAmount > 0, \"Invalid bet amount\");\n        require(checkLotteryTimeNotEnd(_lotteryID), \"Lottery is ended\");\n\n        // Determine total pool value (liquidity + award)\n        uint totalLiquidityPoolSizeWithAward = SafeMath.add(lottery[_lotteryID].liquidity, lottery[_lotteryID].award);\n\n        require(SafeMath.mul(SafeMath.div(_betAmount, totalLiquidityPoolSizeWithAward), uint(100)) <= lottery[_lotteryID].maxBetPercent, \"Bet amount % in relation to pool size is greater than pool maxBetPercent\");\n\n        IERC20 collateral = IERC20(lottery[_lotteryID].collateral);\n\n        //withdraw collateral from member in order to play a game\n        require(collateral.transferFrom(msg.sender, address(this), _betAmount));\n\n        bool gameResult = determineGameResult(_lotteryID);\n\n        if (gameResult) {\n            //send back collateral in case of win\n            //transfer back withdrawn x2\n            require(collateral.transferFrom(msg.sender, address(this), SafeMath.mul(_betAmount, uint(2))));\n            //award minus\n            lottery[_lotteryID].award = SafeMath.sub(lottery[_lotteryID].award, _betAmount);\n        } else {\n            //adjust collateral to pool in case of lose\n            //award plus\n            lottery[_lotteryID].award = SafeMath.add(lottery[_lotteryID].award, _betAmount);\n        }\n\n        emit Play(_lotteryID, msg.sender, _betAmount, gameResult, block.timestamp);\n    }\n    \n    function addLiquidity(uint _lotteryID, uint _liquidityAmount) external {\n        require(lottery[_lotteryID].exist, \"Lottery doesn't exist\");\n        require(lottery[_lotteryID].status == Status.Running, \"Lottery is not running\");\n        require(_liquidityAmount > 0, \"Invalid amount\");\n        require(checkLotteryTimeNotEnd(_lotteryID), \"Lottery is ended\");\n\n        uint memberID = getMemberID();\n\n        IERC20 collateral = IERC20(lottery[_lotteryID].collateral);\n\n        //Deposit collateral\n        require(collateral.transferFrom(msg.sender, address(this), _liquidityAmount));\n\n        //Set liquidity balance for current member\n        liquidityBalances[_lotteryID][memberID] = _liquidityAmount;\n\n        //Increase lottery liquidity value\n        lottery[_lotteryID].liquidity = SafeMath.add(\n            lottery[_lotteryID].liquidity,\n            _liquidityAmount\n        );\n\n        //TODO: member is a new liquidity provider event\n\n        emit Deposit(msg.sender, _liquidityAmount, block.timestamp);\n    }\n\n    //TODO: \n    function redeem(uint _lotteryID) external {\n        require(lottery[_lotteryID].exist, \"Lottery doesn't exist\");\n\n        uint memberID = getMemberID();\n\n        require(liquidityBalances[_lotteryID][memberID] > 0, \"Member didn't provide liquidity or redeemed it\");\n\n        // Determine total pool value (liquidity + award)\n        uint totalLiquidityPoolSizeWithAward = SafeMath.add(lottery[_lotteryID].liquidity, lottery[_lotteryID].award);\n\n        // Determine how much this member invested % from total liquidity pool\n        uint memberLiquidityPercent = SafeMath.mul(SafeMath.div(liquidityBalances[_lotteryID][memberID], lottery[_lotteryID].liquidity), uint(100));\n\n        // Determine how much this member can redeem\n        uint redeemableLiquidity = SafeMath.mul(SafeMath.div(totalLiquidityPoolSizeWithAward, uint(100)), memberLiquidityPercent);\n\n        // Send collateral to user\n        IERC20 collateral = IERC20(lottery[_lotteryID].collateral);\n\n        require(collateral.approve(msg.sender, redeemableLiquidity));\n        require(collateral.transferFrom(address(this), msg.sender, redeemableLiquidity));\n\n        //Set liquidity balance for current member\n        liquidityBalances[_lotteryID][memberID] = uint(0);\n\n        //Decrease lottery liquidity value\n        lottery[_lotteryID].liquidity = SafeMath.sub(\n            lottery[_lotteryID].liquidity,\n            SafeMath.mul(SafeMath.div(lottery[_lotteryID].liquidity, uint(100)),  memberLiquidityPercent)\n        );\n        //Decrease lottery award value\n        lottery[_lotteryID].award = SafeMath.sub(\n            lottery[_lotteryID].award,\n            SafeMath.mul(SafeMath.div(lottery[_lotteryID].award, uint(100)),  memberLiquidityPercent)\n        );\n\n        emit Redeem(msg.sender, redeemableLiquidity, block.timestamp);\n\n        //pause lottery in case there is no liquidity left\n        if(SafeMath.add(lottery[_lotteryID].liquidity, lottery[_lotteryID].award) == 0) {\n            lottery[_lotteryID].status = Status.Paused;\n        }\n\n        checkLotteryTimeNotEnd(_lotteryID);\n    }\n\n    function setCollateral(\n        address _collateral,\n        bool _value\n    ) public onlyOwner {\n        collateralList[_collateral] = _value;\n    }\n\n    // View member liquidity balance\n    // Returns initial liquidity, redeemable liquidity\n    function viewLiquidity(\n        uint _lotteryID,\n        address _member\n    ) public view returns (uint, uint) {\n        require(lottery[_lotteryID].exist, \"Lottery doesn't exist\");\n        require(member[_member] > 0, \"Member doesn't exist\");\n\n        require(liquidityBalances[_lotteryID][member[_member]] > 0, \"Member didn't provide liquidity or redeemed it\");\n\n        // Determine total pool value (liquidity + award)\n        uint totalLiquidityPoolSizeWithAward = SafeMath.add(lottery[_lotteryID].liquidity, lottery[_lotteryID].award);\n\n        // Determine how much this member invested % from total liquidity pool\n        uint memberLiquidityPercent = SafeMath.mul(SafeMath.div(liquidityBalances[_lotteryID][member[_member]], lottery[_lotteryID].liquidity), uint(100));\n\n        // Determine how much this member can redeem\n        uint redeemableLiquidity = SafeMath.mul(SafeMath.div(totalLiquidityPoolSizeWithAward, uint(100)), memberLiquidityPercent);\n\n        return (liquidityBalances[_lotteryID][member[_member]], redeemableLiquidity);\n    }\n}\n\n//todo: rename award to gameresults (poolAdjustment)",
  "sourcePath": "/Users/ianidi/Desktop/work/lottery/contracts/Lottery.sol",
  "compiler": {
    "name": "solc",
    "version": "0.8.0+commit.c7dfd78e.Emscripten.clang"
  },
  "schemaVersion": "3.3.4",
  "updatedAt": "2021-05-05T04:18:40.273Z",
  "devdoc": {
    "kind": "dev",
    "methods": {
      "owner()": {
        "details": "Returns the address of the current owner."
      },
      "renounceOwnership()": {
        "details": "Leaves the contract without owner. It will not be possible to call `onlyOwner` functions anymore. Can only be called by the current owner. NOTE: Renouncing ownership will leave the contract without an owner, thereby removing any functionality that is only available to the owner."
      },
      "transferOwnership(address)": {
        "details": "Transfers ownership of the contract to a new account (`newOwner`). Can only be called by the current owner."
      }
    },
    "version": 1
  },
  "userdoc": {
    "kind": "user",
    "methods": {},
    "version": 1
  }
}