{
  "contractName": "Token",
  "abi": [
    {
      "inputs": [
        {
          "internalType": "string",
          "name": "name_",
          "type": "string"
        },
        {
          "internalType": "string",
          "name": "symbol_",
          "type": "string"
        },
        {
          "internalType": "uint8",
          "name": "decimals_",
          "type": "uint8"
        }
      ],
      "payable": false,
      "stateMutability": "nonpayable",
      "type": "constructor"
    },
    {
      "anonymous": false,
      "inputs": [
        {
          "indexed": true,
          "internalType": "address",
          "name": "owner",
          "type": "address"
        },
        {
          "indexed": true,
          "internalType": "address",
          "name": "spender",
          "type": "address"
        },
        {
          "indexed": false,
          "internalType": "uint256",
          "name": "value",
          "type": "uint256"
        }
      ],
      "name": "Approval",
      "type": "event"
    },
    {
      "anonymous": false,
      "inputs": [
        {
          "indexed": true,
          "internalType": "address",
          "name": "previousOwner",
          "type": "address"
        },
        {
          "indexed": true,
          "internalType": "address",
          "name": "newOwner",
          "type": "address"
        }
      ],
      "name": "OwnershipTransferred",
      "type": "event"
    },
    {
      "anonymous": false,
      "inputs": [
        {
          "indexed": true,
          "internalType": "address",
          "name": "from",
          "type": "address"
        },
        {
          "indexed": true,
          "internalType": "address",
          "name": "to",
          "type": "address"
        },
        {
          "indexed": false,
          "internalType": "uint256",
          "name": "value",
          "type": "uint256"
        }
      ],
      "name": "Transfer",
      "type": "event"
    },
    {
      "constant": true,
      "inputs": [
        {
          "internalType": "address",
          "name": "owner",
          "type": "address"
        },
        {
          "internalType": "address",
          "name": "spender",
          "type": "address"
        }
      ],
      "name": "allowance",
      "outputs": [
        {
          "internalType": "uint256",
          "name": "",
          "type": "uint256"
        }
      ],
      "payable": false,
      "stateMutability": "view",
      "type": "function"
    },
    {
      "constant": false,
      "inputs": [
        {
          "internalType": "address",
          "name": "spender",
          "type": "address"
        },
        {
          "internalType": "uint256",
          "name": "value",
          "type": "uint256"
        }
      ],
      "name": "approve",
      "outputs": [
        {
          "internalType": "bool",
          "name": "",
          "type": "bool"
        }
      ],
      "payable": false,
      "stateMutability": "nonpayable",
      "type": "function"
    },
    {
      "constant": true,
      "inputs": [
        {
          "internalType": "address",
          "name": "account",
          "type": "address"
        }
      ],
      "name": "balanceOf",
      "outputs": [
        {
          "internalType": "uint256",
          "name": "",
          "type": "uint256"
        }
      ],
      "payable": false,
      "stateMutability": "view",
      "type": "function"
    },
    {
      "constant": false,
      "inputs": [
        {
          "internalType": "uint256",
          "name": "amount",
          "type": "uint256"
        }
      ],
      "name": "burn",
      "outputs": [],
      "payable": false,
      "stateMutability": "nonpayable",
      "type": "function"
    },
    {
      "constant": false,
      "inputs": [
        {
          "internalType": "address",
          "name": "account",
          "type": "address"
        },
        {
          "internalType": "uint256",
          "name": "amount",
          "type": "uint256"
        }
      ],
      "name": "burnFrom",
      "outputs": [],
      "payable": false,
      "stateMutability": "nonpayable",
      "type": "function"
    },
    {
      "constant": true,
      "inputs": [],
      "name": "decimals",
      "outputs": [
        {
          "internalType": "uint8",
          "name": "",
          "type": "uint8"
        }
      ],
      "payable": false,
      "stateMutability": "view",
      "type": "function"
    },
    {
      "constant": false,
      "inputs": [
        {
          "internalType": "address",
          "name": "spender",
          "type": "address"
        },
        {
          "internalType": "uint256",
          "name": "subtractedValue",
          "type": "uint256"
        }
      ],
      "name": "decreaseAllowance",
      "outputs": [
        {
          "internalType": "bool",
          "name": "",
          "type": "bool"
        }
      ],
      "payable": false,
      "stateMutability": "nonpayable",
      "type": "function"
    },
    {
      "constant": false,
      "inputs": [
        {
          "internalType": "address",
          "name": "spender",
          "type": "address"
        },
        {
          "internalType": "uint256",
          "name": "addedValue",
          "type": "uint256"
        }
      ],
      "name": "increaseAllowance",
      "outputs": [
        {
          "internalType": "bool",
          "name": "",
          "type": "bool"
        }
      ],
      "payable": false,
      "stateMutability": "nonpayable",
      "type": "function"
    },
    {
      "constant": true,
      "inputs": [],
      "name": "initialSupply",
      "outputs": [
        {
          "internalType": "uint256",
          "name": "",
          "type": "uint256"
        }
      ],
      "payable": false,
      "stateMutability": "view",
      "type": "function"
    },
    {
      "constant": true,
      "inputs": [],
      "name": "isOwner",
      "outputs": [
        {
          "internalType": "bool",
          "name": "",
          "type": "bool"
        }
      ],
      "payable": false,
      "stateMutability": "view",
      "type": "function"
    },
    {
      "constant": true,
      "inputs": [],
      "name": "name",
      "outputs": [
        {
          "internalType": "string",
          "name": "",
          "type": "string"
        }
      ],
      "payable": false,
      "stateMutability": "view",
      "type": "function"
    },
    {
      "constant": true,
      "inputs": [],
      "name": "owner",
      "outputs": [
        {
          "internalType": "address",
          "name": "",
          "type": "address"
        }
      ],
      "payable": false,
      "stateMutability": "view",
      "type": "function"
    },
    {
      "constant": false,
      "inputs": [],
      "name": "renounceOwnership",
      "outputs": [],
      "payable": false,
      "stateMutability": "nonpayable",
      "type": "function"
    },
    {
      "constant": true,
      "inputs": [],
      "name": "symbol",
      "outputs": [
        {
          "internalType": "string",
          "name": "",
          "type": "string"
        }
      ],
      "payable": false,
      "stateMutability": "view",
      "type": "function"
    },
    {
      "constant": true,
      "inputs": [],
      "name": "totalSupply",
      "outputs": [
        {
          "internalType": "uint256",
          "name": "",
          "type": "uint256"
        }
      ],
      "payable": false,
      "stateMutability": "view",
      "type": "function"
    },
    {
      "constant": false,
      "inputs": [
        {
          "internalType": "address",
          "name": "recipient",
          "type": "address"
        },
        {
          "internalType": "uint256",
          "name": "amount",
          "type": "uint256"
        }
      ],
      "name": "transfer",
      "outputs": [
        {
          "internalType": "bool",
          "name": "",
          "type": "bool"
        }
      ],
      "payable": false,
      "stateMutability": "nonpayable",
      "type": "function"
    },
    {
      "constant": false,
      "inputs": [
        {
          "internalType": "address",
          "name": "sender",
          "type": "address"
        },
        {
          "internalType": "address",
          "name": "recipient",
          "type": "address"
        },
        {
          "internalType": "uint256",
          "name": "amount",
          "type": "uint256"
        }
      ],
      "name": "transferFrom",
      "outputs": [
        {
          "internalType": "bool",
          "name": "",
          "type": "bool"
        }
      ],
      "payable": false,
      "stateMutability": "nonpayable",
      "type": "function"
    },
    {
      "constant": false,
      "inputs": [
        {
          "internalType": "address",
          "name": "newOwner",
          "type": "address"
        }
      ],
      "name": "transferOwnership",
      "outputs": [],
      "payable": false,
      "stateMutability": "nonpayable",
      "type": "function"
    }
  ],
  "bytecode": "0x608060405264174876e8006006553480156200001a57600080fd5b50604051620011c8380380620011c8833981810160405260608110156200004057600080fd5b81019080805160405193929190846401000000008211156200006157600080fd5b9083019060208201858111156200007757600080fd5b82516401000000008111828201881017156200009257600080fd5b82525081516020918201929091019080838360005b83811015620000c1578181015183820152602001620000a7565b50505050905090810190601f168015620000ef5780820380516001836020036101000a031916815260200191505b50604052602001805160405193929190846401000000008211156200011357600080fd5b9083019060208201858111156200012957600080fd5b82516401000000008111828201881017156200014457600080fd5b82525081516020918201929091019080838360005b838110156200017357818101518382015260200162000159565b50505050905090810190601f168015620001a15780820380516001836020036101000a031916815260200191505b50604052602090810151855190935085925084918491620001c9916003919086019062000407565b508151620001df90600490602085019062000407565b506005805460ff191660ff929092169190911761010060a860020a0319166101003381029190911791829055604051600160a060020a0391909204169250600091507f8be0079c531659141344cd1fd0a4f28419497f9722a3daafe3b4186f6b6457e0908290a362000263336006546200026c640100000000026401000000009004565b505050620004ac565b600160a060020a038216620002e257604080517f08c379a000000000000000000000000000000000000000000000000000000000815260206004820152601f60248201527f45524332303a206d696e7420746f20746865207a65726f206164647265737300604482015290519081900360640190fd5b600254620002ff9082640100000000620009926200038b82021704565b600255600160a060020a038216600090815260208190526040902054620003359082640100000000620009926200038b82021704565b600160a060020a0383166000818152602081815260408083209490945583518581529351929391927fddf252ad1be2c89b69c2b068fc378daa952ba7f163c4a11628f55a4df523b3ef9281900390910190a35050565b6000828201838110156200040057604080517f08c379a000000000000000000000000000000000000000000000000000000000815260206004820152601b60248201527f536166654d6174683a206164646974696f6e206f766572666c6f770000000000604482015290519081900360640190fd5b9392505050565b828054600181600116156101000203166002900490600052602060002090601f016020900481019282601f106200044a57805160ff19168380011785556200047a565b828001600101855582156200047a579182015b828111156200047a5782518255916020019190600101906200045d565b50620004889291506200048c565b5090565b620004a991905b8082111562000488576000815560010162000493565b90565b610d0c80620004bc6000396000f3fe608060405234801561001057600080fd5b50600436106100e95760e060020a600035046306fdde0381146100ee578063095ea7b31461016b57806318160ddd146101ab57806323b872dd146101c5578063313ce567146101fb578063378dc3dc14610219578063395093511461022157806342966c681461024d57806370a082311461026c578063715018a61461029257806379cc67901461029a5780638da5cb5b146102c65780638f32d59b146102ea57806395d89b41146102f2578063a457c2d7146102fa578063a9059cbb14610326578063dd62ed3e14610352578063f2fde38b14610380575b600080fd5b6100f66103a6565b6040805160208082528351818301528351919283929083019185019080838360005b83811015610130578181015183820152602001610118565b50505050905090810190601f16801561015d5780820380516001836020036101000a031916815260200191505b509250505060405180910390f35b6101976004803603604081101561018157600080fd5b50600160a060020a03813516906020013561043c565b604080519115158252519081900360200190f35b6101b3610452565b60408051918252519081900360200190f35b610197600480360360608110156101db57600080fd5b50600160a060020a03813581169160208101359091169060400135610458565b6102036104af565b6040805160ff9092168252519081900360200190f35b6101b36104b8565b6101976004803603604081101561023757600080fd5b50600160a060020a0381351690602001356104be565b61026a6004803603602081101561026357600080fd5b50356104fa565b005b6101b36004803603602081101561028257600080fd5b5035600160a060020a0316610507565b61026a610522565b61026a600480360360408110156102b057600080fd5b50600160a060020a0381351690602001356105aa565b6102ce6105b8565b60408051600160a060020a039092168252519081900360200190f35b6101976105cc565b6100f66105e2565b6101976004803603604081101561031057600080fd5b50600160a060020a038135169060200135610643565b6101976004803603604081101561033c57600080fd5b50600160a060020a03813516906020013561067f565b6101b36004803603604081101561036857600080fd5b50600160a060020a038135811691602001351661068c565b61026a6004803603602081101561039657600080fd5b5035600160a060020a03166106b7565b60038054604080516020601f60026000196101006001881615020190951694909404938401819004810282018101909252828152606093909290918301828280156104325780601f1061040757610100808354040283529160200191610432565b820191906000526020600020905b81548152906001019060200180831161041557829003601f168201915b5050505050905090565b600061044933848461070a565b50600192915050565b60025490565b60006104658484846107fc565b600160a060020a0384166000908152600160209081526040808320338085529252909120546104a59186916104a0908663ffffffff61093216565b61070a565b5060019392505050565b60055460ff1690565b60065481565b336000818152600160209081526040808320600160a060020a038716845290915281205490916104499185906104a0908663ffffffff61099216565b61050433826109f6565b50565b600160a060020a031660009081526020819052604090205490565b61052a6105cc565b61056c576040805160e560020a62461bcd0281526020600482018190526024820152600080516020610c0e833981519152604482015290519081900360640190fd5b6005546040516000916101009004600160a060020a031690600080516020610c2e833981519152908390a36005805461010060a860020a0319169055565b6105b48282610ac0565b5050565b6005546101009004600160a060020a031690565b6005546101009004600160a060020a0316331490565b60048054604080516020601f60026000196101006001881615020190951694909404938401819004810282018101909252828152606093909290918301828280156104325780601f1061040757610100808354040283529160200191610432565b336000818152600160209081526040808320600160a060020a038716845290915281205490916104499185906104a0908663ffffffff61093216565b60006104493384846107fc565b600160a060020a03918216600090815260016020908152604080832093909416825291909152205490565b6106bf6105cc565b610701576040805160e560020a62461bcd0281526020600482018190526024820152600080516020610c0e833981519152604482015290519081900360640190fd5b61050481610b05565b600160a060020a0383166107525760405160e560020a62461bcd028152600401808060200182810382526024815260200180610cb46024913960400191505060405180910390fd5b600160a060020a03821661079a5760405160e560020a62461bcd028152600401808060200182810382526022815260200180610bec6022913960400191505060405180910390fd5b600160a060020a03808416600081815260016020908152604080832094871680845294825291829020859055815185815291517f8c5be1e5ebec7d5bd14f71427d1e84f3dd0314c0f7b2291e5b200ac8c7c3b9259281900390910190a3505050565b600160a060020a0383166108445760405160e560020a62461bcd028152600401808060200182810382526025815260200180610c8f6025913960400191505060405180910390fd5b600160a060020a03821661088c5760405160e560020a62461bcd028152600401808060200182810382526023815260200180610ba36023913960400191505060405180910390fd5b600160a060020a0383166000908152602081905260409020546108b5908263ffffffff61093216565b600160a060020a0380851660009081526020819052604080822093909355908416815220546108ea908263ffffffff61099216565b600160a060020a03808416600081815260208181526040918290209490945580518581529051919392871692600080516020610c4e83398151915292918290030190a3505050565b60008282111561098c576040805160e560020a62461bcd02815260206004820152601e60248201527f536166654d6174683a207375627472616374696f6e206f766572666c6f770000604482015290519081900360640190fd5b50900390565b6000828201838110156109ef576040805160e560020a62461bcd02815260206004820152601b60248201527f536166654d6174683a206164646974696f6e206f766572666c6f770000000000604482015290519081900360640190fd5b9392505050565b600160a060020a038216610a3e5760405160e560020a62461bcd028152600401808060200182810382526021815260200180610c6e6021913960400191505060405180910390fd5b600254610a51908263ffffffff61093216565b600255600160a060020a038216600090815260208190526040902054610a7d908263ffffffff61093216565b600160a060020a03831660008181526020818152604080832094909455835185815293519193600080516020610c4e833981519152929081900390910190a35050565b610aca82826109f6565b600160a060020a0382166000908152600160209081526040808320338085529252909120546105b49184916104a0908563ffffffff61093216565b600160a060020a038116610b4d5760405160e560020a62461bcd028152600401808060200182810382526026815260200180610bc66026913960400191505060405180910390fd5b600554604051600160a060020a038084169261010090041690600080516020610c2e83398151915290600090a360058054600160a060020a039092166101000261010060a860020a031990921691909117905556fe45524332303a207472616e7366657220746f20746865207a65726f20616464726573734f776e61626c653a206e6577206f776e657220697320746865207a65726f206164647265737345524332303a20617070726f766520746f20746865207a65726f20616464726573734f776e61626c653a2063616c6c6572206973206e6f7420746865206f776e65728be0079c531659141344cd1fd0a4f28419497f9722a3daafe3b4186f6b6457e0ddf252ad1be2c89b69c2b068fc378daa952ba7f163c4a11628f55a4df523b3ef45524332303a206275726e2066726f6d20746865207a65726f206164647265737345524332303a207472616e736665722066726f6d20746865207a65726f206164647265737345524332303a20617070726f76652066726f6d20746865207a65726f2061646472657373a265627a7a723158203cd4c6ca491cd97dabba420161b85a3f11d3c5f5bca487b1a932189652b05f7464736f6c634300050c0032",
  "source": "// contracts/ERC20.sol\n// SPDX-License-Identifier: MIT\npragma solidity 0.5.12;\n\nimport \"openzeppelin-solidity/contracts/token/ERC20/ERC20.sol\";\nimport \"openzeppelin-solidity/contracts/token/ERC20/ERC20Detailed.sol\";\nimport \"openzeppelin-solidity/contracts/token/ERC20/ERC20Burnable.sol\";\nimport \"openzeppelin-solidity/contracts/ownership/Ownable.sol\";\n\ncontract Token is ERC20, ERC20Detailed, ERC20Burnable, Ownable {\n\n    uint public initialSupply  = 100000000000; \n\n    constructor(string memory name_, string memory symbol_, uint8 decimals_) ERC20Detailed(name_, symbol_, decimals_) public {\n        _mint(msg.sender, initialSupply);\n    }\n}\n",
  "sourcePath": "/Users/ianidi/Desktop/work/lottery/contracts/Token.sol",
  "compiler": {
    "name": "solc",
    "version": "0.5.12+commit.7709ece9.Emscripten.clang"
  },
  "schemaVersion": "3.3.4",
  "updatedAt": "2021-05-01T19:51:35.767Z",
  "networkType": "ethereum",
  "devdoc": {
    "methods": {
      "allowance(address,address)": {
        "details": "See `IERC20.allowance`."
      },
      "approve(address,uint256)": {
        "details": "See `IERC20.approve`.     * Requirements:     * - `spender` cannot be the zero address."
      },
      "balanceOf(address)": {
        "details": "See `IERC20.balanceOf`."
      },
      "burn(uint256)": {
        "details": "Destoys `amount` tokens from the caller.     * See `ERC20._burn`."
      },
      "burnFrom(address,uint256)": {
        "details": "See `ERC20._burnFrom`."
      },
      "decimals()": {
        "details": "Returns the number of decimals used to get its user representation. For example, if `decimals` equals `2`, a balance of `505` tokens should be displayed to a user as `5,05` (`505 / 10 ** 2`).     * Tokens usually opt for a value of 18, imitating the relationship between Ether and Wei.     * > Note that this information is only used for _display_ purposes: it in no way affects any of the arithmetic of the contract, including `IERC20.balanceOf` and `IERC20.transfer`."
      },
      "decreaseAllowance(address,uint256)": {
        "details": "Atomically decreases the allowance granted to `spender` by the caller.     * This is an alternative to `approve` that can be used as a mitigation for problems described in `IERC20.approve`.     * Emits an `Approval` event indicating the updated allowance.     * Requirements:     * - `spender` cannot be the zero address. - `spender` must have allowance for the caller of at least `subtractedValue`."
      },
      "increaseAllowance(address,uint256)": {
        "details": "Atomically increases the allowance granted to `spender` by the caller.     * This is an alternative to `approve` that can be used as a mitigation for problems described in `IERC20.approve`.     * Emits an `Approval` event indicating the updated allowance.     * Requirements:     * - `spender` cannot be the zero address."
      },
      "isOwner()": {
        "details": "Returns true if the caller is the current owner."
      },
      "name()": {
        "details": "Returns the name of the token."
      },
      "owner()": {
        "details": "Returns the address of the current owner."
      },
      "renounceOwnership()": {
        "details": "Leaves the contract without owner. It will not be possible to call `onlyOwner` functions anymore. Can only be called by the current owner.     * > Note: Renouncing ownership will leave the contract without an owner, thereby removing any functionality that is only available to the owner."
      },
      "symbol()": {
        "details": "Returns the symbol of the token, usually a shorter version of the name."
      },
      "totalSupply()": {
        "details": "See `IERC20.totalSupply`."
      },
      "transfer(address,uint256)": {
        "details": "See `IERC20.transfer`.     * Requirements:     * - `recipient` cannot be the zero address. - the caller must have a balance of at least `amount`."
      },
      "transferFrom(address,address,uint256)": {
        "details": "See `IERC20.transferFrom`.     * Emits an `Approval` event indicating the updated allowance. This is not required by the EIP. See the note at the beginning of `ERC20`;     * Requirements: - `sender` and `recipient` cannot be the zero address. - `sender` must have a balance of at least `value`. - the caller must have allowance for `sender`'s tokens of at least `amount`."
      },
      "transferOwnership(address)": {
        "details": "Transfers ownership of the contract to a new account (`newOwner`). Can only be called by the current owner."
      }
    }
  },
  "userdoc": {
    "methods": {}
  }
}